{
  "contractName": "HealthRecord",
  "abi": [
    {
      "inputs": [],
      "stateMutability": "nonpayable",
      "type": "constructor"
    },
    {
      "anonymous": false,
      "inputs": [
        {
          "indexed": false,
          "internalType": "address",
          "name": "doctorAddress",
          "type": "address"
        }
      ],
      "name": "LogForDoctorAssigned",
      "type": "event"
    },
    {
      "anonymous": false,
      "inputs": [
        {
          "components": [
            {
              "internalType": "address",
              "name": "patientID",
              "type": "address"
            },
            {
              "internalType": "string",
              "name": "fullName",
              "type": "string"
            },
            {
              "internalType": "uint256",
              "name": "weight",
              "type": "uint256"
            },
            {
              "internalType": "string",
              "name": "bloodType",
              "type": "string"
            },
            {
              "internalType": "string",
              "name": "contact",
              "type": "string"
            }
          ],
          "indexed": false,
          "internalType": "struct HealthRecord.Patient",
          "name": "patient",
          "type": "tuple"
        }
      ],
      "name": "LogForupdatePatientInfo",
      "type": "event"
    },
    {
      "anonymous": false,
      "inputs": [
        {
          "indexed": true,
          "internalType": "address",
          "name": "previousOwner",
          "type": "address"
        },
        {
          "indexed": true,
          "internalType": "address",
          "name": "newOwner",
          "type": "address"
        }
      ],
      "name": "OwnershipTransferred",
      "type": "event"
    },
    {
      "inputs": [
        {
          "internalType": "uint256",
          "name": "",
          "type": "uint256"
        }
      ],
      "name": "assignedDoctors",
      "outputs": [
        {
          "internalType": "address",
          "name": "",
          "type": "address"
        }
      ],
      "stateMutability": "view",
      "type": "function",
      "constant": true
    },
    {
      "inputs": [
        {
          "internalType": "uint256",
          "name": "",
          "type": "uint256"
        }
      ],
      "name": "doctorReports",
      "outputs": [
        {
          "internalType": "address",
          "name": "doctor",
          "type": "address"
        },
        {
          "internalType": "uint256",
          "name": "timestamp",
          "type": "uint256"
        },
        {
          "internalType": "enum HealthRecord.TreatmentStatus",
          "name": "treatmentStatus",
          "type": "uint8"
        },
        {
          "internalType": "string",
          "name": "treatment",
          "type": "string"
        },
        {
          "internalType": "string",
          "name": "medication",
          "type": "string"
        }
      ],
      "stateMutability": "view",
      "type": "function",
      "constant": true
    },
    {
      "inputs": [],
      "name": "owner",
      "outputs": [
        {
          "internalType": "address",
          "name": "",
          "type": "address"
        }
      ],
      "stateMutability": "view",
      "type": "function",
      "constant": true
    },
    {
      "inputs": [],
      "name": "ownerAddres",
      "outputs": [
        {
          "internalType": "address",
          "name": "",
          "type": "address"
        }
      ],
      "stateMutability": "view",
      "type": "function",
      "constant": true
    },
    {
      "inputs": [],
      "name": "renounceOwnership",
      "outputs": [],
      "stateMutability": "nonpayable",
      "type": "function"
    },
    {
      "inputs": [],
      "name": "reportsCount",
      "outputs": [
        {
          "internalType": "uint256",
          "name": "",
          "type": "uint256"
        }
      ],
      "stateMutability": "view",
      "type": "function",
      "constant": true
    },
    {
      "inputs": [
        {
          "internalType": "address",
          "name": "newOwner",
          "type": "address"
        }
      ],
      "name": "transferOwnership",
      "outputs": [],
      "stateMutability": "nonpayable",
      "type": "function"
    },
    {
      "inputs": [
        {
          "internalType": "uint256",
          "name": "_doctorID",
          "type": "uint256"
        }
      ],
      "name": "assigneDoctor",
      "outputs": [
        {
          "internalType": "uint256",
          "name": "",
          "type": "uint256"
        }
      ],
      "stateMutability": "nonpayable",
      "type": "function"
    },
    {
      "inputs": [],
      "name": "getAssignedDoctors",
      "outputs": [
        {
          "internalType": "address[10]",
          "name": "",
          "type": "address[10]"
        }
      ],
      "stateMutability": "view",
      "type": "function",
      "constant": true
    },
    {
      "inputs": [
        {
          "internalType": "string",
          "name": "_fullName",
          "type": "string"
        },
        {
          "internalType": "uint256",
          "name": "_weight",
          "type": "uint256"
        },
        {
          "internalType": "string",
          "name": "_bloodType",
          "type": "string"
        },
        {
          "internalType": "string",
          "name": "_contact",
          "type": "string"
        }
      ],
      "name": "updatePatientInfo",
      "outputs": [
        {
          "internalType": "bool",
          "name": "",
          "type": "bool"
        }
      ],
      "stateMutability": "nonpayable",
      "type": "function"
    },
    {
      "inputs": [
        {
          "internalType": "string",
          "name": "_treatment",
          "type": "string"
        },
        {
          "internalType": "string",
          "name": "_medication",
          "type": "string"
        },
        {
          "internalType": "enum HealthRecord.TreatmentStatus",
          "name": "status",
          "type": "uint8"
        }
      ],
      "name": "addDoctorReport",
      "outputs": [],
      "stateMutability": "nonpayable",
      "type": "function"
    },
    {
      "inputs": [],
      "name": "fetchPatient",
      "outputs": [
        {
          "internalType": "string",
          "name": "fullName",
          "type": "string"
        },
        {
          "internalType": "uint256",
          "name": "weight",
          "type": "uint256"
        },
        {
          "internalType": "string",
          "name": "bloodType",
          "type": "string"
        },
        {
          "internalType": "string",
          "name": "contact",
          "type": "string"
        }
      ],
      "stateMutability": "view",
      "type": "function",
      "constant": true
    },
    {
      "inputs": [
        {
          "internalType": "uint256",
          "name": "_doctorID",
          "type": "uint256"
        }
      ],
      "name": "removeAsigneedDoctor",
      "outputs": [],
      "stateMutability": "nonpayable",
      "type": "function"
    },
    {
      "inputs": [
        {
          "internalType": "uint256",
          "name": "_reportsCount",
          "type": "uint256"
        }
      ],
      "name": "updateDoctorReport",
      "outputs": [],
      "stateMutability": "nonpayable",
      "type": "function"
    }
  ],
  "bytecode": "0x608060405234801561001057600080fd5b5061002d61002261007b60201b60201c565b61008360201b60201c565b33600b60006101000a81548173ffffffffffffffffffffffffffffffffffffffff021916908373ffffffffffffffffffffffffffffffffffffffff1602179055506000600c81905550610147565b600033905090565b60008060009054906101000a900473ffffffffffffffffffffffffffffffffffffffff169050816000806101000a81548173ffffffffffffffffffffffffffffffffffffffff021916908373ffffffffffffffffffffffffffffffffffffffff1602179055508173ffffffffffffffffffffffffffffffffffffffff168173ffffffffffffffffffffffffffffffffffffffff167f8be0079c531659141344cd1fd0a4f28419497f9722a3daafe3b4186f6b6457e060405160405180910390a35050565b611865806101566000396000f3fe608060405234801561001057600080fd5b50600436106100ea5760003560e01c806389ff0dfa1161008c578063e2c4ed1b11610066578063e2c4ed1b14610228578063e5b51e6a14610246578063f2fde38b1461027a578063feff4c7614610296576100ea565b806389ff0dfa146101d05780638da5cb5b146101ee578063ca6ab43b1461020c576100ea565b8063715018a6116100c8578063715018a61461014557806371848e091461014f5780637871bb281461017f5780637c333fbb146101a0576100ea565b80633e0c27f0146100ef5780634c2c9a911461010d578063558dde0014610129575b600080fd5b6100f76102c6565b6040516101049190611483565b60405180910390f35b61012760048036038101906101229190610f00565b6102cc565b005b610143600480360381019061013e919061102a565b610459565b005b61014d61045c565b005b61016960048036038101906101649190610f7f565b6104e4565b60405161017691906113ac565b60405180910390f35b610187610690565b60405161019794939291906113c7565b60405180910390f35b6101ba60048036038101906101b5919061102a565b610855565b6040516101c79190611314565b60405180910390f35b6101d861088b565b6040516101e59190611314565b60405180910390f35b6101f66108b1565b6040516102039190611314565b60405180910390f35b6102266004803603810190610221919061102a565b6108da565b005b6102306108dd565b60405161023d9190611390565b60405180910390f35b610260600480360381019061025b919061102a565b61095e565b60405161027195949392919061132f565b60405180910390f35b610294600480360381019061028f9190610ed7565b610ad1565b005b6102b060048036038101906102ab919061102a565b610bc9565b6040516102bd9190611483565b60405180910390f35b600c5481565b6040518060a001604052803373ffffffffffffffffffffffffffffffffffffffff168152602001428152602001826002811115610332577f4e487b7100000000000000000000000000000000000000000000000000000000600052602160045260246000fd5b81526020018481526020018381525060126000600c54815260200190815260200160002060008201518160000160006101000a81548173ffffffffffffffffffffffffffffffffffffffff021916908373ffffffffffffffffffffffffffffffffffffffff1602179055506020820151816001015560408201518160020160006101000a81548160ff021916908360028111156103f8577f4e487b7100000000000000000000000000000000000000000000000000000000600052602160045260246000fd5b02179055506060820151816003019080519060200190610419929190610d6a565b506080820151816004019080519060200190610436929190610d6a565b509050506001600c600082825461044d919061156e565b92505081905550505050565b50565b610464610c9e565b73ffffffffffffffffffffffffffffffffffffffff166104826108b1565b73ffffffffffffffffffffffffffffffffffffffff16146104d8576040517f08c379a00000000000000000000000000000000000000000000000000000000081526004016104cf90611441565b60405180910390fd5b6104e26000610ca6565b565b60006104ee610c9e565b73ffffffffffffffffffffffffffffffffffffffff1661050c6108b1565b73ffffffffffffffffffffffffffffffffffffffff1614610562576040517f08c379a000000000000000000000000000000000000000000000000000000000815260040161055990611441565b60405180910390fd5b6040518060a001604052803373ffffffffffffffffffffffffffffffffffffffff16815260200186815260200185815260200184815260200183815250600d60008201518160000160006101000a81548173ffffffffffffffffffffffffffffffffffffffff021916908373ffffffffffffffffffffffffffffffffffffffff1602179055506020820151816001019080519060200190610604929190610d6a565b5060408201518160020155606082015181600301908051906020019061062b929190610d6a565b506080820151816004019080519060200190610648929190610d6a565b509050507fcc672764fa3f286076f9b381fe3174ba12fa0824585b8c010a272cd9bad1587a600d60405161067c9190611461565b60405180910390a160019050949350505050565b60606000606080600d60010180546106a79061169d565b80601f01602080910402602001604051908101604052809291908181526020018280546106d39061169d565b80156107205780601f106106f557610100808354040283529160200191610720565b820191906000526020600020905b81548152906001019060200180831161070357829003601f168201915b50505050509350600d600201549250600d600301805461073f9061169d565b80601f016020809104026020016040519081016040528092919081815260200182805461076b9061169d565b80156107b85780601f1061078d576101008083540402835291602001916107b8565b820191906000526020600020905b81548152906001019060200180831161079b57829003601f168201915b50505050509150600d60040180546107cf9061169d565b80601f01602080910402602001604051908101604052809291908181526020018280546107fb9061169d565b80156108485780601f1061081d57610100808354040283529160200191610848565b820191906000526020600020905b81548152906001019060200180831161082b57829003601f168201915b5050505050905090919293565b600181600a811061086557600080fd5b016000915054906101000a900473ffffffffffffffffffffffffffffffffffffffff1681565b600b60009054906101000a900473ffffffffffffffffffffffffffffffffffffffff1681565b60008060009054906101000a900473ffffffffffffffffffffffffffffffffffffffff16905090565b50565b6108e5610df0565b6001600a806020026040519081016040528092919082600a8015610954576020028201915b8160009054906101000a900473ffffffffffffffffffffffffffffffffffffffff1673ffffffffffffffffffffffffffffffffffffffff168152602001906001019080831161090a575b5050505050905090565b60126020528060005260406000206000915090508060000160009054906101000a900473ffffffffffffffffffffffffffffffffffffffff16908060010154908060020160009054906101000a900460ff16908060030180546109c09061169d565b80601f01602080910402602001604051908101604052809291908181526020018280546109ec9061169d565b8015610a395780601f10610a0e57610100808354040283529160200191610a39565b820191906000526020600020905b815481529060010190602001808311610a1c57829003601f168201915b505050505090806004018054610a4e9061169d565b80601f0160208091040260200160405190810160405280929190818152602001828054610a7a9061169d565b8015610ac75780601f10610a9c57610100808354040283529160200191610ac7565b820191906000526020600020905b815481529060010190602001808311610aaa57829003601f168201915b5050505050905085565b610ad9610c9e565b73ffffffffffffffffffffffffffffffffffffffff16610af76108b1565b73ffffffffffffffffffffffffffffffffffffffff1614610b4d576040517f08c379a0000000000000000000000000000000000000000000000000000000008152600401610b4490611441565b60405180910390fd5b600073ffffffffffffffffffffffffffffffffffffffff168173ffffffffffffffffffffffffffffffffffffffff161415610bbd576040517f08c379a0000000000000000000000000000000000000000000000000000000008152600401610bb490611421565b60405180910390fd5b610bc681610ca6565b50565b6000808210158015610bdc575060138211155b610be557600080fd5b33600183600a8110610c20577f4e487b7100000000000000000000000000000000000000000000000000000000600052603260045260246000fd5b0160006101000a81548173ffffffffffffffffffffffffffffffffffffffff021916908373ffffffffffffffffffffffffffffffffffffffff1602179055507f399e1235657eaba28575a1c3b0de3e41ce529a6f109f3504c6bafa937e65361c33604051610c8e9190611314565b60405180910390a1819050919050565b600033905090565b60008060009054906101000a900473ffffffffffffffffffffffffffffffffffffffff169050816000806101000a81548173ffffffffffffffffffffffffffffffffffffffff021916908373ffffffffffffffffffffffffffffffffffffffff1602179055508173ffffffffffffffffffffffffffffffffffffffff168173ffffffffffffffffffffffffffffffffffffffff167f8be0079c531659141344cd1fd0a4f28419497f9722a3daafe3b4186f6b6457e060405160405180910390a35050565b828054610d769061169d565b90600052602060002090601f016020900481019282610d985760008555610ddf565b82601f10610db157805160ff1916838001178555610ddf565b82800160010185558215610ddf579182015b82811115610dde578251825591602001919060010190610dc3565b5b509050610dec9190610e13565b5090565b604051806101400160405280600a90602082028036833780820191505090505090565b5b80821115610e2c576000816000905550600101610e14565b5090565b6000610e43610e3e846114cf565b61149e565b905082815260208101848484011115610e5b57600080fd5b610e6684828561165b565b509392505050565b600081359050610e7d816117f1565b92915050565b600081359050610e9281611808565b92915050565b600082601f830112610ea957600080fd5b8135610eb9848260208601610e30565b91505092915050565b600081359050610ed181611818565b92915050565b600060208284031215610ee957600080fd5b6000610ef784828501610e6e565b91505092915050565b600080600060608486031215610f1557600080fd5b600084013567ffffffffffffffff811115610f2f57600080fd5b610f3b86828701610e98565b935050602084013567ffffffffffffffff811115610f5857600080fd5b610f6486828701610e98565b9250506040610f7586828701610e83565b9150509250925092565b60008060008060808587031215610f9557600080fd5b600085013567ffffffffffffffff811115610faf57600080fd5b610fbb87828801610e98565b9450506020610fcc87828801610ec2565b935050604085013567ffffffffffffffff811115610fe957600080fd5b610ff587828801610e98565b925050606085013567ffffffffffffffff81111561101257600080fd5b61101e87828801610e98565b91505092959194509250565b60006020828403121561103c57600080fd5b600061104a84828501610ec2565b91505092915050565b600061105f838361106b565b60208301905092915050565b611074816115ee565b82525050565b611083816115ee565b82525050565b6110928161151e565b61109c8184611541565b92506110a7826114ff565b8060005b838110156110d85781516110bf8782611053565b96506110ca83611534565b9250506001810190506110ab565b505050505050565b6110e981611600565b82525050565b6110f881611649565b82525050565b600061110982611529565b611113818561155d565b935061112381856020860161166a565b61112c816117bf565b840191505092915050565b600081546111448161169d565b61114e818661154c565b94506001821660008114611169576001811461117b576111ae565b60ff19831686526020860193506111ae565b61118485611509565b60005b838110156111a657815481890152600182019150602081019050611187565b808801955050505b50505092915050565b60006111c460268361155d565b91507f4f776e61626c653a206e6577206f776e657220697320746865207a65726f206160008301527f64647265737300000000000000000000000000000000000000000000000000006020830152604082019050919050565b600061122a60208361155d565b91507f4f776e61626c653a2063616c6c6572206973206e6f7420746865206f776e65726000830152602082019050919050565b600060a083016000808401549050611274816116cf565b611281600087018261106b565b506001840185830360208701526112988382611137565b925050600284015490506112ab816116e9565b6112b860408701826112f6565b506003840185830360608701526112cf8382611137565b9250506004840185830360808701526112e88382611137565b925050819250505092915050565b6112ff8161163f565b82525050565b61130e8161163f565b82525050565b6000602082019050611329600083018461107a565b92915050565b600060a082019050611344600083018861107a565b6113516020830187611305565b61135e60408301866110ef565b818103606083015261137081856110fe565b9050818103608083015261138481846110fe565b90509695505050505050565b6000610140820190506113a66000830184611089565b92915050565b60006020820190506113c160008301846110e0565b92915050565b600060808201905081810360008301526113e181876110fe565b90506113f06020830186611305565b818103604083015261140281856110fe565b9050818103606083015261141681846110fe565b905095945050505050565b6000602082019050818103600083015261143a816111b7565b9050919050565b6000602082019050818103600083015261145a8161121d565b9050919050565b6000602082019050818103600083015261147b818461125d565b905092915050565b60006020820190506114986000830184611305565b92915050565b6000604051905081810181811067ffffffffffffffff821117156114c5576114c4611790565b5b8060405250919050565b600067ffffffffffffffff8211156114ea576114e9611790565b5b601f19601f8301169050602081019050919050565b6000819050919050565b60008190508160005260206000209050919050565b6000600a9050919050565b600081519050919050565b6000602082019050919050565b600081905092915050565b600082825260208201905092915050565b600082825260208201905092915050565b60006115798261163f565b91506115848361163f565b9250827fffffffffffffffffffffffffffffffffffffffffffffffffffffffffffffffff038211156115b9576115b8611703565b5b828201905092915050565b600073ffffffffffffffffffffffffffffffffffffffff82169050919050565b6000819050919050565b60006115f98261161f565b9050919050565b60008115159050919050565b600081905061161a826117dd565b919050565b600073ffffffffffffffffffffffffffffffffffffffff82169050919050565b6000819050919050565b60006116548261160c565b9050919050565b82818337600083830152505050565b60005b8381101561168857808201518184015260208101905061166d565b83811115611697576000848401525b50505050565b600060028204905060018216806116b557607f821691505b602082108114156116c9576116c8611761565b5b50919050565b60006116e26116dd836117d0565b6115c4565b9050919050565b60006116fc6116f7836117d0565b6115e4565b9050919050565b7f4e487b7100000000000000000000000000000000000000000000000000000000600052601160045260246000fd5b7f4e487b7100000000000000000000000000000000000000000000000000000000600052602160045260246000fd5b7f4e487b7100000000000000000000000000000000000000000000000000000000600052602260045260246000fd5b7f4e487b7100000000000000000000000000000000000000000000000000000000600052604160045260246000fd5b6000601f19601f8301169050919050565b60008160001c9050919050565b600381106117ee576117ed611732565b5b50565b6117fa816115ee565b811461180557600080fd5b50565b6003811061181557600080fd5b50565b6118218161163f565b811461182c57600080fd5b5056fea264697066735822122093aa01ca8cba4b85a1e699933b86456fe1594dbcf24019e096408b53a3ad5fed64736f6c63430008000033",
  "immutableReferences": {},
  "source": "// SPDX-License-Identifier: MIT\npragma solidity 0.8.0;\n\nimport \"@openzeppelin/contracts/access/Ownable.sol\";\n\n\n/// @title Contract for healthRecord app\n/// @author Daniela Rodrguez\n/// @notice Allows a user to select different medical specialists, save personal patient's personal information and update medical reports\n\n\ncontract HealthRecord is Ownable{\n\n  // List of addresses of the doctors available in the app \n  address[10] public assignedDoctors;\n\n  // Address of the patient \n  address public ownerAddres;\n\n  // Used as a counter of medical reports\n   uint public reportsCount;\n \n   // <enum TreatmentStatus: Started, InProcess, Finished>\n    // 0 = Started    - The patient was diagnosed and is going to start the treatment recommended\n    // 1 = InProcess  - The patient is in treatment\n    // 2 = Finished   - The patient finished the medical treatment. \n   enum TreatmentStatus{Started, InProcess, Finished}\n\n   /// Patient Information\n  struct Patient {\n\t  address patientID;\n\t  string fullName;\n\t  uint256 weight;\n\t  string bloodType;\n\t  string contact;\n  }\n\n  /// Doctor Report Information\n   struct DoctorsReport{\n\t  address doctor;\n\t  uint timestamp;\n\t  TreatmentStatus treatmentStatus;\n\t  string treatment;\n\t  string medication;\n  }\n\n  // Patient owner of the Health Record\n  Patient private patient;\n\n   /* \n   * Events\n   */\n   /// @notice Emitted when a doctor is assigned \n   /// @param doctorAddress Doctor assigned address\n   event LogForDoctorAssigned(address doctorAddress);\n\n   /// @notice Emitted when a patient update his personal information \n   /// @param patient Patient which information is updated\n   event LogForupdatePatientInfo(Patient patient);\n\n   mapping (uint => DoctorsReport) public doctorReports;\n\n   /// @notice HealthRecord constructor called at deploy time\n   constructor() {\n    ownerAddres = msg.sender;\n\treportsCount= 0;\n    }\n\n  \n\t/// @notice Returns de doctorID assigned in the App\n    /// @param _doctorID doctorAssigned in the app\n    /// @dev updates the assigned doctor list with the doctorAddress\n\tfunction assigneDoctor(uint _doctorID) public returns (uint) {\n  \trequire(_doctorID >= 0 && _doctorID <= 19);\n  \tassignedDoctors[_doctorID] = msg.sender;\n\temit LogForDoctorAssigned(msg.sender);\n  \treturn _doctorID;\n\t}\n\n    /// @notice Returns de assigned doctor for a patient\n    function getAssignedDoctors() public view returns (address[10] memory) {\n    return assignedDoctors;\n    }\n\n\t/// @notice Update patient information\n    /// @param _fullName Patient's name\n\t/// @param _weight   Patient's weight\n\t/// @param _bloodType Patient's _bloodType\n\t/// @param _contact   Patient's contactNumber\n\tfunction updatePatientInfo(string memory _fullName, uint256 _weight,  string memory _bloodType, string memory _contact) public onlyOwner returns (bool) {\n\n\t\tpatient= Patient({\n\t\t  patientID: msg.sender,\n\t\t  fullName: _fullName,\n\t\t  weight: _weight,\n\t\t  bloodType: _bloodType,\n\t\t  contact: _contact\n\t   });\n\t   \n\t   emit LogForupdatePatientInfo(patient);\n\t   return true;\n\t }\n\n\t \n\t /// @notice Add a doctor report with a tratment state.\n\t /// @param _treatment    Patient's name\n\t /// @param _medication   Patient's weight\n\t function addDoctorReport(string memory _treatment, string memory _medication, TreatmentStatus status )  public{\n\n\t\tdoctorReports[reportsCount] = DoctorsReport({\n\t\t\tdoctor: msg.sender,\n\t\t\ttimestamp: block.timestamp,\n\t\t\ttreatmentStatus: status,\n\t\t\ttreatment: _treatment,\n\t\t\tmedication: _medication\n\t\t});\n\t\treportsCount+= 1;\n\t }\n\n\t /// @notice Return patient information\n\t\t function fetchPatient() public view \n     returns (string memory fullName, uint256 weight,  string memory bloodType, string memory contact)\n  { \n    fullName = patient.fullName; \n    weight = patient.weight; \n    bloodType = patient.bloodType; \n    contact = patient.contact; \n    return (fullName, weight, bloodType, contact); \n   } \n\t function removeAsigneedDoctor(uint _doctorID) public{\n\t\t// TODO:\n\t}\n\n\tfunction updateDoctorReport(uint _reportsCount) public{\n\t\t// TODO:\n\t}\n\n\n\n\n}\n\n",
  "sourcePath": "/home/drodriguez/blockchain-developer-bootcamp-final-project/contracts/HealthRecord.sol",
  "compiler": {
    "name": "solc",
    "version": "0.8.0+commit.c7dfd78e.Emscripten.clang"
  },
  "schemaVersion": "3.4.3",
  "updatedAt": "2022-01-15T15:21:30.739Z",
  "networkType": "ethereum",
  "devdoc": {
    "author": "Daniela Rodrguez",
    "events": {
      "LogForDoctorAssigned(address)": {
        "params": {
          "doctorAddress": "Doctor assigned address"
        }
      },
      "LogForupdatePatientInfo((address,string,uint256,string,string))": {
        "params": {
          "patient": "Patient which information is updated"
        }
      }
    },
    "kind": "dev",
    "methods": {
      "addDoctorReport(string,string,uint8)": {
        "params": {
          "_medication": "Patient's weight",
          "_treatment": "Patient's name"
        }
      },
      "assigneDoctor(uint256)": {
        "details": "updates the assigned doctor list with the doctorAddress",
        "params": {
          "_doctorID": "doctorAssigned in the app"
        }
      },
      "owner()": {
        "details": "Returns the address of the current owner."
      },
      "renounceOwnership()": {
        "details": "Leaves the contract without owner. It will not be possible to call `onlyOwner` functions anymore. Can only be called by the current owner. NOTE: Renouncing ownership will leave the contract without an owner, thereby removing any functionality that is only available to the owner."
      },
      "transferOwnership(address)": {
        "details": "Transfers ownership of the contract to a new account (`newOwner`). Can only be called by the current owner."
      },
      "updatePatientInfo(string,uint256,string,string)": {
        "params": {
          "_bloodType": "Patient's _bloodType",
          "_contact": "Patient's contactNumber",
          "_fullName": "Patient's name",
          "_weight": "Patient's weight"
        }
      }
    },
    "title": "Contract for healthRecord app",
    "version": 1
  },
  "userdoc": {
    "events": {
      "LogForDoctorAssigned(address)": {
        "notice": "Emitted when a doctor is assigned "
      },
      "LogForupdatePatientInfo((address,string,uint256,string,string))": {
        "notice": "Emitted when a patient update his personal information "
      }
    },
    "kind": "user",
    "methods": {
      "addDoctorReport(string,string,uint8)": {
        "notice": "Add a doctor report with a tratment state."
      },
      "assigneDoctor(uint256)": {
        "notice": "Returns de doctorID assigned in the App"
      },
      "constructor": {
        "notice": "HealthRecord constructor called at deploy time"
      },
      "fetchPatient()": {
        "notice": "Return patient information"
      },
      "getAssignedDoctors()": {
        "notice": "Returns de assigned doctor for a patient"
      },
      "updatePatientInfo(string,uint256,string,string)": {
        "notice": "Update patient information"
      }
    },
    "notice": "Allows a user to select different medical specialists, save personal patient's personal information and update medical reports",
    "version": 1
  }
}