{
  "contractName": "HealthRecord",
  "abi": [
    {
      "inputs": [],
      "stateMutability": "nonpayable",
      "type": "constructor"
    },
    {
      "anonymous": false,
      "inputs": [
        {
          "indexed": false,
          "internalType": "address",
          "name": "doctorAddress",
          "type": "address"
        }
      ],
      "name": "LogForDoctorAssigned",
      "type": "event"
    },
    {
      "anonymous": false,
      "inputs": [
        {
          "components": [
            {
              "internalType": "address",
              "name": "patientID",
              "type": "address"
            },
            {
              "internalType": "string",
              "name": "fullName",
              "type": "string"
            },
            {
              "internalType": "uint256",
              "name": "weight",
              "type": "uint256"
            },
            {
              "internalType": "string",
              "name": "bloodType",
              "type": "string"
            },
            {
              "internalType": "string",
              "name": "contact",
              "type": "string"
            }
          ],
          "indexed": false,
          "internalType": "struct HealthRecord.Patient",
          "name": "patient",
          "type": "tuple"
        }
      ],
      "name": "LogForupdatePatientInfo",
      "type": "event"
    },
    {
      "anonymous": false,
      "inputs": [
        {
          "indexed": true,
          "internalType": "address",
          "name": "previousOwner",
          "type": "address"
        },
        {
          "indexed": true,
          "internalType": "address",
          "name": "newOwner",
          "type": "address"
        }
      ],
      "name": "OwnershipTransferred",
      "type": "event"
    },
    {
      "inputs": [
        {
          "internalType": "uint256",
          "name": "",
          "type": "uint256"
        }
      ],
      "name": "assignedDoctors",
      "outputs": [
        {
          "internalType": "address",
          "name": "",
          "type": "address"
        }
      ],
      "stateMutability": "view",
      "type": "function",
      "constant": true
    },
    {
      "inputs": [
        {
          "internalType": "uint256",
          "name": "",
          "type": "uint256"
        }
      ],
      "name": "doctorReports",
      "outputs": [
        {
          "internalType": "address",
          "name": "doctor",
          "type": "address"
        },
        {
          "internalType": "uint256",
          "name": "timestamp",
          "type": "uint256"
        },
        {
          "internalType": "enum HealthRecord.TreatmentStatus",
          "name": "treatmentStatus",
          "type": "uint8"
        },
        {
          "internalType": "string",
          "name": "treatment",
          "type": "string"
        },
        {
          "internalType": "string",
          "name": "medication",
          "type": "string"
        }
      ],
      "stateMutability": "view",
      "type": "function",
      "constant": true
    },
    {
      "inputs": [],
      "name": "owner",
      "outputs": [
        {
          "internalType": "address",
          "name": "",
          "type": "address"
        }
      ],
      "stateMutability": "view",
      "type": "function",
      "constant": true
    },
    {
      "inputs": [],
      "name": "renounceOwnership",
      "outputs": [],
      "stateMutability": "nonpayable",
      "type": "function"
    },
    {
      "inputs": [
        {
          "internalType": "address",
          "name": "newOwner",
          "type": "address"
        }
      ],
      "name": "transferOwnership",
      "outputs": [],
      "stateMutability": "nonpayable",
      "type": "function"
    },
    {
      "inputs": [
        {
          "internalType": "uint256",
          "name": "_doctorID",
          "type": "uint256"
        }
      ],
      "name": "assigneDoctor",
      "outputs": [
        {
          "internalType": "uint256",
          "name": "",
          "type": "uint256"
        }
      ],
      "stateMutability": "nonpayable",
      "type": "function"
    },
    {
      "inputs": [],
      "name": "getAssignedDoctors",
      "outputs": [
        {
          "internalType": "address[10]",
          "name": "",
          "type": "address[10]"
        }
      ],
      "stateMutability": "view",
      "type": "function",
      "constant": true
    },
    {
      "inputs": [
        {
          "internalType": "string",
          "name": "_fullName",
          "type": "string"
        },
        {
          "internalType": "uint256",
          "name": "_weight",
          "type": "uint256"
        },
        {
          "internalType": "string",
          "name": "_bloodType",
          "type": "string"
        },
        {
          "internalType": "string",
          "name": "_contact",
          "type": "string"
        }
      ],
      "name": "updatePatientInfo",
      "outputs": [
        {
          "internalType": "bool",
          "name": "",
          "type": "bool"
        }
      ],
      "stateMutability": "nonpayable",
      "type": "function"
    },
    {
      "inputs": [
        {
          "internalType": "string",
          "name": "_treatment",
          "type": "string"
        },
        {
          "internalType": "string",
          "name": "_medication",
          "type": "string"
        }
      ],
      "name": "addDoctorReport",
      "outputs": [],
      "stateMutability": "nonpayable",
      "type": "function"
    },
    {
      "inputs": [
        {
          "internalType": "uint256",
          "name": "_doctorID",
          "type": "uint256"
        }
      ],
      "name": "removeAsigneedDoctor",
      "outputs": [],
      "stateMutability": "nonpayable",
      "type": "function"
    },
    {
      "inputs": [
        {
          "internalType": "uint256",
          "name": "_reportsCount",
          "type": "uint256"
        }
      ],
      "name": "updateDoctorReport",
      "outputs": [],
      "stateMutability": "nonpayable",
      "type": "function"
    }
  ],
  "bytecode": "0x608060405234801561001057600080fd5b5061002d61002261007b60201b60201c565b61008360201b60201c565b33600b60006101000a81548173ffffffffffffffffffffffffffffffffffffffff021916908373ffffffffffffffffffffffffffffffffffffffff1602179055506000600c81905550610147565b600033905090565b60008060009054906101000a900473ffffffffffffffffffffffffffffffffffffffff169050816000806101000a81548173ffffffffffffffffffffffffffffffffffffffff021916908373ffffffffffffffffffffffffffffffffffffffff1602179055508173ffffffffffffffffffffffffffffffffffffffff168173ffffffffffffffffffffffffffffffffffffffff167f8be0079c531659141344cd1fd0a4f28419497f9722a3daafe3b4186f6b6457e060405160405180910390a35050565b61157f806101566000396000f3fe608060405234801561001057600080fd5b50600436106100a95760003560e01c80638da5cb5b116100715780638da5cb5b14610150578063ca6ab43b1461016e578063e2c4ed1b1461018a578063e5b51e6a146101a8578063f2fde38b146101dc578063feff4c76146101f8576100a9565b8063558dde00146100ae578063715018a6146100ca57806371848e09146100d45780637c333fbb146101045780637d52493814610134575b600080fd5b6100c860048036038101906100c39190610b79565b610228565b005b6100d261022b565b005b6100ee60048036038101906100e99190610cec565b6102b3565b6040516100fb9190610dc2565b60405180910390f35b61011e60048036038101906101199190610b79565b61045f565b60405161012b9190610e1e565b60405180910390f35b61014e60048036038101906101499190610e39565b610495565b005b6101586105d6565b6040516101659190610e1e565b60405180910390f35b61018860048036038101906101839190610b79565b6105ff565b005b610192610602565b60405161019f9190610f5c565b60405180910390f35b6101c260048036038101906101bd9190610b79565b610683565b6040516101d3959493929190611086565b60405180910390f35b6101f660048036038101906101f19190611113565b6107f6565b005b610212600480360381019061020d9190610b79565b6108ee565b60405161021f9190611140565b60405180910390f35b50565b61023361099d565b73ffffffffffffffffffffffffffffffffffffffff166102516105d6565b73ffffffffffffffffffffffffffffffffffffffff16146102a7576040517f08c379a000000000000000000000000000000000000000000000000000000000815260040161029e906111a7565b60405180910390fd5b6102b160006109a5565b565b60006102bd61099d565b73ffffffffffffffffffffffffffffffffffffffff166102db6105d6565b73ffffffffffffffffffffffffffffffffffffffff1614610331576040517f08c379a0000000000000000000000000000000000000000000000000000000008152600401610328906111a7565b60405180910390fd5b6040518060a001604052803373ffffffffffffffffffffffffffffffffffffffff16815260200186815260200185815260200184815260200183815250600d60008201518160000160006101000a81548173ffffffffffffffffffffffffffffffffffffffff021916908373ffffffffffffffffffffffffffffffffffffffff16021790555060208201518160010190805190602001906103d3929190610a69565b506040820151816002015560608201518160030190805190602001906103fa929190610a69565b506080820151816004019080519060200190610417929190610a69565b509050507fcc672764fa3f286076f9b381fe3174ba12fa0824585b8c010a272cd9bad1587a600d60405161044b91906113e1565b60405180910390a160019050949350505050565b600181600a811061046f57600080fd5b016000915054906101000a900473ffffffffffffffffffffffffffffffffffffffff1681565b6040518060a001604052803373ffffffffffffffffffffffffffffffffffffffff168152602001428152602001600060028111156104d6576104d5610f87565b5b81526020018381526020018281525060126000600c54815260200190815260200160002060008201518160000160006101000a81548173ffffffffffffffffffffffffffffffffffffffff021916908373ffffffffffffffffffffffffffffffffffffffff1602179055506020820151816001015560408201518160020160006101000a81548160ff0219169083600281111561057657610575610f87565b5b02179055506060820151816003019080519060200190610597929190610a69565b5060808201518160040190805190602001906105b4929190610a69565b509050506001600c60008282546105cb9190611432565b925050819055505050565b60008060009054906101000a900473ffffffffffffffffffffffffffffffffffffffff16905090565b50565b61060a610aef565b6001600a806020026040519081016040528092919082600a8015610679576020028201915b8160009054906101000a900473ffffffffffffffffffffffffffffffffffffffff1673ffffffffffffffffffffffffffffffffffffffff168152602001906001019080831161062f575b5050505050905090565b60126020528060005260406000206000915090508060000160009054906101000a900473ffffffffffffffffffffffffffffffffffffffff16908060010154908060020160009054906101000a900460ff16908060030180546106e59061123d565b80601f01602080910402602001604051908101604052809291908181526020018280546107119061123d565b801561075e5780601f106107335761010080835404028352916020019161075e565b820191906000526020600020905b81548152906001019060200180831161074157829003601f168201915b5050505050908060040180546107739061123d565b80601f016020809104026020016040519081016040528092919081815260200182805461079f9061123d565b80156107ec5780601f106107c1576101008083540402835291602001916107ec565b820191906000526020600020905b8154815290600101906020018083116107cf57829003601f168201915b5050505050905085565b6107fe61099d565b73ffffffffffffffffffffffffffffffffffffffff1661081c6105d6565b73ffffffffffffffffffffffffffffffffffffffff1614610872576040517f08c379a0000000000000000000000000000000000000000000000000000000008152600401610869906111a7565b60405180910390fd5b600073ffffffffffffffffffffffffffffffffffffffff168173ffffffffffffffffffffffffffffffffffffffff1614156108e2576040517f08c379a00000000000000000000000000000000000000000000000000000000081526004016108d9906114fa565b60405180910390fd5b6108eb816109a5565b50565b6000808210158015610901575060138211155b61090a57600080fd5b33600183600a811061091f5761091e61151a565b5b0160006101000a81548173ffffffffffffffffffffffffffffffffffffffff021916908373ffffffffffffffffffffffffffffffffffffffff1602179055507f399e1235657eaba28575a1c3b0de3e41ce529a6f109f3504c6bafa937e65361c3360405161098d9190610e1e565b60405180910390a1819050919050565b600033905090565b60008060009054906101000a900473ffffffffffffffffffffffffffffffffffffffff169050816000806101000a81548173ffffffffffffffffffffffffffffffffffffffff021916908373ffffffffffffffffffffffffffffffffffffffff1602179055508173ffffffffffffffffffffffffffffffffffffffff168173ffffffffffffffffffffffffffffffffffffffff167f8be0079c531659141344cd1fd0a4f28419497f9722a3daafe3b4186f6b6457e060405160405180910390a35050565b828054610a759061123d565b90600052602060002090601f016020900481019282610a975760008555610ade565b82601f10610ab057805160ff1916838001178555610ade565b82800160010185558215610ade579182015b82811115610add578251825591602001919060010190610ac2565b5b509050610aeb9190610b12565b5090565b604051806101400160405280600a90602082028036833780820191505090505090565b5b80821115610b2b576000816000905550600101610b13565b5090565b6000604051905090565b600080fd5b600080fd5b6000819050919050565b610b5681610b43565b8114610b6157600080fd5b50565b600081359050610b7381610b4d565b92915050565b600060208284031215610b8f57610b8e610b39565b5b6000610b9d84828501610b64565b91505092915050565b600080fd5b600080fd5b6000601f19601f8301169050919050565b7f4e487b7100000000000000000000000000000000000000000000000000000000600052604160045260246000fd5b610bf982610bb0565b810181811067ffffffffffffffff82111715610c1857610c17610bc1565b5b80604052505050565b6000610c2b610b2f565b9050610c378282610bf0565b919050565b600067ffffffffffffffff821115610c5757610c56610bc1565b5b610c6082610bb0565b9050602081019050919050565b82818337600083830152505050565b6000610c8f610c8a84610c3c565b610c21565b905082815260208101848484011115610cab57610caa610bab565b5b610cb6848285610c6d565b509392505050565b600082601f830112610cd357610cd2610ba6565b5b8135610ce3848260208601610c7c565b91505092915050565b60008060008060808587031215610d0657610d05610b39565b5b600085013567ffffffffffffffff811115610d2457610d23610b3e565b5b610d3087828801610cbe565b9450506020610d4187828801610b64565b935050604085013567ffffffffffffffff811115610d6257610d61610b3e565b5b610d6e87828801610cbe565b925050606085013567ffffffffffffffff811115610d8f57610d8e610b3e565b5b610d9b87828801610cbe565b91505092959194509250565b60008115159050919050565b610dbc81610da7565b82525050565b6000602082019050610dd76000830184610db3565b92915050565b600073ffffffffffffffffffffffffffffffffffffffff82169050919050565b6000610e0882610ddd565b9050919050565b610e1881610dfd565b82525050565b6000602082019050610e336000830184610e0f565b92915050565b60008060408385031215610e5057610e4f610b39565b5b600083013567ffffffffffffffff811115610e6e57610e6d610b3e565b5b610e7a85828601610cbe565b925050602083013567ffffffffffffffff811115610e9b57610e9a610b3e565b5b610ea785828601610cbe565b9150509250929050565b6000600a9050919050565b600081905092915050565b6000819050919050565b610eda81610dfd565b82525050565b6000610eec8383610ed1565b60208301905092915050565b6000602082019050919050565b610f0e81610eb1565b610f188184610ebc565b9250610f2382610ec7565b8060005b83811015610f54578151610f3b8782610ee0565b9650610f4683610ef8565b925050600181019050610f27565b505050505050565b600061014082019050610f726000830184610f05565b92915050565b610f8181610b43565b82525050565b7f4e487b7100000000000000000000000000000000000000000000000000000000600052602160045260246000fd5b60038110610fc757610fc6610f87565b5b50565b6000819050610fd882610fb6565b919050565b6000610fe882610fca565b9050919050565b610ff881610fdd565b82525050565b600081519050919050565b600082825260208201905092915050565b60005b8381101561103857808201518184015260208101905061101d565b83811115611047576000848401525b50505050565b600061105882610ffe565b6110628185611009565b935061107281856020860161101a565b61107b81610bb0565b840191505092915050565b600060a08201905061109b6000830188610e0f565b6110a86020830187610f78565b6110b56040830186610fef565b81810360608301526110c7818561104d565b905081810360808301526110db818461104d565b90509695505050505050565b6110f081610dfd565b81146110fb57600080fd5b50565b60008135905061110d816110e7565b92915050565b60006020828403121561112957611128610b39565b5b6000611137848285016110fe565b91505092915050565b60006020820190506111556000830184610f78565b92915050565b7f4f776e61626c653a2063616c6c6572206973206e6f7420746865206f776e6572600082015250565b6000611191602083611009565b915061119c8261115b565b602082019050919050565b600060208201905081810360008301526111c081611184565b9050919050565b60008160001c9050919050565b600073ffffffffffffffffffffffffffffffffffffffff82169050919050565b6000611207611202836111c7565b6111d4565b9050919050565b7f4e487b7100000000000000000000000000000000000000000000000000000000600052602260045260246000fd5b6000600282049050600182168061125557607f821691505b602082108114156112695761126861120e565b5b50919050565b600082825260208201905092915050565b60008190508160005260206000209050919050565b600081546112a28161123d565b6112ac818661126f565b945060018216600081146112c757600181146112d95761130c565b60ff198316865260208601935061130c565b6112e285611280565b60005b83811015611304578154818901526001820191506020810190506112e5565b808801955050505b50505092915050565b6000819050919050565b600061133261132d836111c7565b611315565b9050919050565b61134281610b43565b82525050565b600060a08301600080840154905061135f816111f4565b61136c6000870182610ed1565b506001840185830360208701526113838382611295565b925050600284015490506113968161131f565b6113a36040870182611339565b506003840185830360608701526113ba8382611295565b9250506004840185830360808701526113d38382611295565b925050819250505092915050565b600060208201905081810360008301526113fb8184611348565b905092915050565b7f4e487b7100000000000000000000000000000000000000000000000000000000600052601160045260246000fd5b600061143d82610b43565b915061144883610b43565b9250827fffffffffffffffffffffffffffffffffffffffffffffffffffffffffffffffff0382111561147d5761147c611403565b5b828201905092915050565b7f4f776e61626c653a206e6577206f776e657220697320746865207a65726f206160008201527f6464726573730000000000000000000000000000000000000000000000000000602082015250565b60006114e4602683611009565b91506114ef82611488565b604082019050919050565b60006020820190508181036000830152611513816114d7565b9050919050565b7f4e487b7100000000000000000000000000000000000000000000000000000000600052603260045260246000fdfea2646970667358221220d70427bc5b1963e6915ea951b34c6615bd27a0639c8632a438032d4d959d452064736f6c634300080b0033",
  "immutableReferences": {},
  "source": "pragma solidity ^0.8.0;\n\nimport \"@openzeppelin/contracts/access/Ownable.sol\";\n\ncontract HealthRecord is Ownable{\n\n  address[10] public assignedDoctors;\n  address ownerAddres;\n\n  uint reportsCount;\n \n  enum TreatmentStatus{Started, InProcess, Finished}\n\n  struct Patient {\n\t  address patientID;\n\t  string fullName;\n\t  uint256 weight;\n\t  string bloodType;\n\t  string contact;\n  }\n\n  Patient patient;\n\n  struct DoctorsReport{\n\t  address doctor;\n\t  uint timestamp;\n\t  TreatmentStatus treatmentStatus;\n\t  string treatment;\n\t  string medication;\n  }\n\n   /* \n   * Events\n   */\n   event LogForDoctorAssigned(address doctorAddress);\n   event LogForupdatePatientInfo(Patient patient);\n\n   mapping (uint => DoctorsReport) public doctorReports;\n\n   constructor() {\n    ownerAddres = msg.sender;\n\treportsCount= 0;\n    }\n\n  \n\tfunction assigneDoctor(uint _doctorID) public returns (uint) {\n  \trequire(_doctorID >= 0 && _doctorID <= 19);\n  \tassignedDoctors[_doctorID] = msg.sender;\n\temit LogForDoctorAssigned(msg.sender);\n  \treturn _doctorID;\n\t}\n\n  \n    function getAssignedDoctors() public view returns (address[10] memory) {\n    return assignedDoctors;\n    }\n\n\tfunction updatePatientInfo(string memory _fullName, uint256 _weight,  string memory _bloodType, string memory _contact) public onlyOwner returns (bool) {\n\n\t\tpatient= Patient({\n\t\t  patientID: msg.sender,\n\t\t  fullName: _fullName,\n\t\t  weight: _weight,\n\t\t  bloodType: _bloodType,\n\t\t  contact: _contact\n\t   });\n\t   \n\t   emit LogForupdatePatientInfo(patient);\n\t   return true;\n\t }\n\n\t \n\n\t function addDoctorReport(string memory _treatment, string memory _medication) public{\n\n\t\tdoctorReports[reportsCount] = DoctorsReport({\n\t\t\tdoctor: msg.sender,\n\t\t\ttimestamp: block.timestamp,\n\t\t\ttreatmentStatus: TreatmentStatus.Started,\n\t\t\ttreatment: _treatment,\n\t\t\tmedication: _medication\n\t\t});\n\t\treportsCount+= 1;\n\t }\n\n\t function removeAsigneedDoctor(uint _doctorID) public{\n\t\t// TODO:\n\t}\n\n\tfunction updateDoctorReport(uint _reportsCount) public{\n\t\t// TODO:\n\t}\n\n\n\n\n}\n\n",
  "sourcePath": "/home/drodriguez/blockchain-developer-bootcamp-final-project/contracts/HealthRecord.sol",
  "compiler": {
    "name": "solc",
    "version": "0.8.11+commit.d7f03943.Emscripten.clang"
  },
  "schemaVersion": "3.4.3",
  "updatedAt": "2022-01-14T11:00:27.260Z",
  "networkType": "ethereum",
  "devdoc": {
    "kind": "dev",
    "methods": {
      "owner()": {
        "details": "Returns the address of the current owner."
      },
      "renounceOwnership()": {
        "details": "Leaves the contract without owner. It will not be possible to call `onlyOwner` functions anymore. Can only be called by the current owner. NOTE: Renouncing ownership will leave the contract without an owner, thereby removing any functionality that is only available to the owner."
      },
      "transferOwnership(address)": {
        "details": "Transfers ownership of the contract to a new account (`newOwner`). Can only be called by the current owner."
      }
    },
    "version": 1
  },
  "userdoc": {
    "kind": "user",
    "methods": {},
    "version": 1
  }
}