{
  "contractName": "HealthRecord",
  "abi": [
    {
      "inputs": [],
      "stateMutability": "nonpayable",
      "type": "constructor"
    },
    {
      "anonymous": false,
      "inputs": [
        {
          "indexed": false,
          "internalType": "address",
          "name": "doctorAddress",
          "type": "address"
        }
      ],
      "name": "LogForDoctorAssigned",
      "type": "event"
    },
    {
      "anonymous": false,
      "inputs": [
        {
          "components": [
            {
              "internalType": "address",
              "name": "patientID",
              "type": "address"
            },
            {
              "internalType": "string",
              "name": "fullName",
              "type": "string"
            },
            {
              "internalType": "uint256",
              "name": "weight",
              "type": "uint256"
            },
            {
              "internalType": "string",
              "name": "bloodType",
              "type": "string"
            },
            {
              "internalType": "string",
              "name": "contact",
              "type": "string"
            }
          ],
          "indexed": false,
          "internalType": "struct HealthRecord.Patient",
          "name": "patient",
          "type": "tuple"
        }
      ],
      "name": "LogForupdatePatientInfo",
      "type": "event"
    },
    {
      "anonymous": false,
      "inputs": [
        {
          "indexed": true,
          "internalType": "address",
          "name": "previousOwner",
          "type": "address"
        },
        {
          "indexed": true,
          "internalType": "address",
          "name": "newOwner",
          "type": "address"
        }
      ],
      "name": "OwnershipTransferred",
      "type": "event"
    },
    {
      "inputs": [
        {
          "internalType": "uint256",
          "name": "",
          "type": "uint256"
        }
      ],
      "name": "assignedDoctors",
      "outputs": [
        {
          "internalType": "address",
          "name": "",
          "type": "address"
        }
      ],
      "stateMutability": "view",
      "type": "function"
    },
    {
      "inputs": [
        {
          "internalType": "uint256",
          "name": "",
          "type": "uint256"
        }
      ],
      "name": "doctorReports",
      "outputs": [
        {
          "internalType": "address",
          "name": "doctor",
          "type": "address"
        },
        {
          "internalType": "uint256",
          "name": "timestamp",
          "type": "uint256"
        },
        {
          "internalType": "enum HealthRecord.TreatmentStatus",
          "name": "treatmentStatus",
          "type": "uint8"
        },
        {
          "internalType": "string",
          "name": "treatment",
          "type": "string"
        },
        {
          "internalType": "string",
          "name": "medication",
          "type": "string"
        }
      ],
      "stateMutability": "view",
      "type": "function"
    },
    {
      "inputs": [],
      "name": "owner",
      "outputs": [
        {
          "internalType": "address",
          "name": "",
          "type": "address"
        }
      ],
      "stateMutability": "view",
      "type": "function"
    },
    {
      "inputs": [],
      "name": "ownerAddres",
      "outputs": [
        {
          "internalType": "address",
          "name": "",
          "type": "address"
        }
      ],
      "stateMutability": "view",
      "type": "function"
    },
    {
      "inputs": [],
      "name": "renounceOwnership",
      "outputs": [],
      "stateMutability": "nonpayable",
      "type": "function"
    },
    {
      "inputs": [],
      "name": "reportsCount",
      "outputs": [
        {
          "internalType": "uint256",
          "name": "",
          "type": "uint256"
        }
      ],
      "stateMutability": "view",
      "type": "function"
    },
    {
      "inputs": [
        {
          "internalType": "address",
          "name": "newOwner",
          "type": "address"
        }
      ],
      "name": "transferOwnership",
      "outputs": [],
      "stateMutability": "nonpayable",
      "type": "function"
    },
    {
      "inputs": [
        {
          "internalType": "uint256",
          "name": "_doctorID",
          "type": "uint256"
        }
      ],
      "name": "assigneDoctor",
      "outputs": [
        {
          "internalType": "uint256",
          "name": "",
          "type": "uint256"
        }
      ],
      "stateMutability": "nonpayable",
      "type": "function"
    },
    {
      "inputs": [],
      "name": "getAssignedDoctors",
      "outputs": [
        {
          "internalType": "address[10]",
          "name": "",
          "type": "address[10]"
        }
      ],
      "stateMutability": "view",
      "type": "function"
    },
    {
      "inputs": [
        {
          "internalType": "string",
          "name": "_fullName",
          "type": "string"
        },
        {
          "internalType": "uint256",
          "name": "_weight",
          "type": "uint256"
        },
        {
          "internalType": "string",
          "name": "_bloodType",
          "type": "string"
        },
        {
          "internalType": "string",
          "name": "_contact",
          "type": "string"
        }
      ],
      "name": "updatePatientInfo",
      "outputs": [
        {
          "internalType": "bool",
          "name": "",
          "type": "bool"
        }
      ],
      "stateMutability": "nonpayable",
      "type": "function"
    },
    {
      "inputs": [
        {
          "internalType": "string",
          "name": "_treatment",
          "type": "string"
        },
        {
          "internalType": "string",
          "name": "_medication",
          "type": "string"
        },
        {
          "internalType": "enum HealthRecord.TreatmentStatus",
          "name": "status",
          "type": "uint8"
        }
      ],
      "name": "addDoctorReport",
      "outputs": [],
      "stateMutability": "nonpayable",
      "type": "function"
    },
    {
      "inputs": [],
      "name": "fetchPatient",
      "outputs": [
        {
          "internalType": "string",
          "name": "fullName",
          "type": "string"
        },
        {
          "internalType": "uint256",
          "name": "weight",
          "type": "uint256"
        },
        {
          "internalType": "string",
          "name": "bloodType",
          "type": "string"
        },
        {
          "internalType": "string",
          "name": "contact",
          "type": "string"
        }
      ],
      "stateMutability": "view",
      "type": "function"
    },
    {
      "inputs": [
        {
          "internalType": "uint256",
          "name": "reportNumber",
          "type": "uint256"
        }
      ],
      "name": "fetchReport",
      "outputs": [
        {
          "internalType": "address",
          "name": "doctor",
          "type": "address"
        },
        {
          "internalType": "string",
          "name": "treatment",
          "type": "string"
        },
        {
          "internalType": "string",
          "name": "medication",
          "type": "string"
        },
        {
          "internalType": "uint256",
          "name": "state",
          "type": "uint256"
        }
      ],
      "stateMutability": "view",
      "type": "function"
    },
    {
      "inputs": [
        {
          "internalType": "uint256",
          "name": "_doctorID",
          "type": "uint256"
        }
      ],
      "name": "removeAsigneedDoctor",
      "outputs": [],
      "stateMutability": "nonpayable",
      "type": "function"
    },
    {
      "inputs": [
        {
          "internalType": "uint256",
          "name": "_reportsCount",
          "type": "uint256"
        }
      ],
      "name": "updateDoctorReport",
      "outputs": [],
      "stateMutability": "nonpayable",
      "type": "function"
    }
  ],
  "bytecode": "0x608060405234801561001057600080fd5b5061002d61002261007b60201b60201c565b61008360201b60201c565b33600b60006101000a81548173ffffffffffffffffffffffffffffffffffffffff021916908373ffffffffffffffffffffffffffffffffffffffff1602179055506000600c81905550610147565b600033905090565b60008060009054906101000a900473ffffffffffffffffffffffffffffffffffffffff169050816000806101000a81548173ffffffffffffffffffffffffffffffffffffffff021916908373ffffffffffffffffffffffffffffffffffffffff1602179055508173ffffffffffffffffffffffffffffffffffffffff168173ffffffffffffffffffffffffffffffffffffffff167f8be0079c531659141344cd1fd0a4f28419497f9722a3daafe3b4186f6b6457e060405160405180910390a35050565b611add806101566000396000f3fe608060405234801561001057600080fd5b50600436106100f55760003560e01c80637e8597fb11610097578063e2c4ed1b11610066578063e2c4ed1b14610266578063e5b51e6a14610284578063f2fde38b146102b8578063feff4c76146102d4576100f5565b80637e8597fb146101db57806389ff0dfa1461020e5780638da5cb5b1461022c578063ca6ab43b1461024a576100f5565b8063715018a6116100d3578063715018a61461015057806371848e091461015a5780637871bb281461018a5780637c333fbb146101ab576100f5565b80633e0c27f0146100fa5780634c2c9a9114610118578063558dde0014610134575b600080fd5b610102610304565b60405161010f91906116fb565b60405180910390f35b610132600480360381019061012d9190611125565b61030a565b005b61014e6004803603810190610149919061124f565b610497565b005b61015861049a565b005b610174600480360381019061016f91906111a4565b610522565b6040516101819190611624565b60405180910390f35b6101926106ce565b6040516101a2949392919061163f565b60405180910390f35b6101c560048036038101906101c0919061124f565b610893565b6040516101d29190611539565b60405180910390f35b6101f560048036038101906101f0919061124f565b6108c9565b6040516102059493929190611554565b60405180910390f35b610216610ab0565b6040516102239190611539565b60405180910390f35b610234610ad6565b6040516102419190611539565b60405180910390f35b610264600480360381019061025f919061124f565b610aff565b005b61026e610b02565b60405161027b9190611608565b60405180910390f35b61029e6004803603810190610299919061124f565b610b83565b6040516102af9594939291906115a7565b60405180910390f35b6102d260048036038101906102cd91906110fc565b610cf6565b005b6102ee60048036038101906102e9919061124f565b610dee565b6040516102fb91906116fb565b60405180910390f35b600c5481565b6040518060a001604052803373ffffffffffffffffffffffffffffffffffffffff168152602001428152602001826002811115610370577f4e487b7100000000000000000000000000000000000000000000000000000000600052602160045260246000fd5b81526020018481526020018381525060126000600c54815260200190815260200160002060008201518160000160006101000a81548173ffffffffffffffffffffffffffffffffffffffff021916908373ffffffffffffffffffffffffffffffffffffffff1602179055506020820151816001015560408201518160020160006101000a81548160ff02191690836002811115610436577f4e487b7100000000000000000000000000000000000000000000000000000000600052602160045260246000fd5b02179055506060820151816003019080519060200190610457929190610f8f565b506080820151816004019080519060200190610474929190610f8f565b509050506001600c600082825461048b91906117e6565b92505081905550505050565b50565b6104a2610ec3565b73ffffffffffffffffffffffffffffffffffffffff166104c0610ad6565b73ffffffffffffffffffffffffffffffffffffffff1614610516576040517f08c379a000000000000000000000000000000000000000000000000000000000815260040161050d906116b9565b60405180910390fd5b6105206000610ecb565b565b600061052c610ec3565b73ffffffffffffffffffffffffffffffffffffffff1661054a610ad6565b73ffffffffffffffffffffffffffffffffffffffff16146105a0576040517f08c379a0000000000000000000000000000000000000000000000000000000008152600401610597906116b9565b60405180910390fd5b6040518060a001604052803373ffffffffffffffffffffffffffffffffffffffff16815260200186815260200185815260200184815260200183815250600d60008201518160000160006101000a81548173ffffffffffffffffffffffffffffffffffffffff021916908373ffffffffffffffffffffffffffffffffffffffff1602179055506020820151816001019080519060200190610642929190610f8f565b50604082015181600201556060820151816003019080519060200190610669929190610f8f565b506080820151816004019080519060200190610686929190610f8f565b509050507fcc672764fa3f286076f9b381fe3174ba12fa0824585b8c010a272cd9bad1587a600d6040516106ba91906116d9565b60405180910390a160019050949350505050565b60606000606080600d60010180546106e590611915565b80601f016020809104026020016040519081016040528092919081815260200182805461071190611915565b801561075e5780601f106107335761010080835404028352916020019161075e565b820191906000526020600020905b81548152906001019060200180831161074157829003601f168201915b50505050509350600d600201549250600d600301805461077d90611915565b80601f01602080910402602001604051908101604052809291908181526020018280546107a990611915565b80156107f65780601f106107cb576101008083540402835291602001916107f6565b820191906000526020600020905b8154815290600101906020018083116107d957829003601f168201915b50505050509150600d600401805461080d90611915565b80601f016020809104026020016040519081016040528092919081815260200182805461083990611915565b80156108865780601f1061085b57610100808354040283529160200191610886565b820191906000526020600020905b81548152906001019060200180831161086957829003601f168201915b5050505050905090919293565b600181600a81106108a357600080fd5b016000915054906101000a900473ffffffffffffffffffffffffffffffffffffffff1681565b600060608060006012600086815260200190815260200160002060000160009054906101000a900473ffffffffffffffffffffffffffffffffffffffff16935060126000868152602001908152602001600020600301805461092a90611915565b80601f016020809104026020016040519081016040528092919081815260200182805461095690611915565b80156109a35780601f10610978576101008083540402835291602001916109a3565b820191906000526020600020905b81548152906001019060200180831161098657829003601f168201915b505050505092506012600086815260200190815260200160002060040180546109cb90611915565b80601f01602080910402602001604051908101604052809291908181526020018280546109f790611915565b8015610a445780601f10610a1957610100808354040283529160200191610a44565b820191906000526020600020905b815481529060010190602001808311610a2757829003601f168201915b505050505091506012600086815260200190815260200160002060020160009054906101000a900460ff166002811115610aa7577f4e487b7100000000000000000000000000000000000000000000000000000000600052602160045260246000fd5b90509193509193565b600b60009054906101000a900473ffffffffffffffffffffffffffffffffffffffff1681565b60008060009054906101000a900473ffffffffffffffffffffffffffffffffffffffff16905090565b50565b610b0a611015565b6001600a806020026040519081016040528092919082600a8015610b79576020028201915b8160009054906101000a900473ffffffffffffffffffffffffffffffffffffffff1673ffffffffffffffffffffffffffffffffffffffff1681526020019060010190808311610b2f575b5050505050905090565b60126020528060005260406000206000915090508060000160009054906101000a900473ffffffffffffffffffffffffffffffffffffffff16908060010154908060020160009054906101000a900460ff1690806003018054610be590611915565b80601f0160208091040260200160405190810160405280929190818152602001828054610c1190611915565b8015610c5e5780601f10610c3357610100808354040283529160200191610c5e565b820191906000526020600020905b815481529060010190602001808311610c4157829003601f168201915b505050505090806004018054610c7390611915565b80601f0160208091040260200160405190810160405280929190818152602001828054610c9f90611915565b8015610cec5780601f10610cc157610100808354040283529160200191610cec565b820191906000526020600020905b815481529060010190602001808311610ccf57829003601f168201915b5050505050905085565b610cfe610ec3565b73ffffffffffffffffffffffffffffffffffffffff16610d1c610ad6565b73ffffffffffffffffffffffffffffffffffffffff1614610d72576040517f08c379a0000000000000000000000000000000000000000000000000000000008152600401610d69906116b9565b60405180910390fd5b600073ffffffffffffffffffffffffffffffffffffffff168173ffffffffffffffffffffffffffffffffffffffff161415610de2576040517f08c379a0000000000000000000000000000000000000000000000000000000008152600401610dd990611699565b60405180910390fd5b610deb81610ecb565b50565b6000808210158015610e01575060138211155b610e0a57600080fd5b33600183600a8110610e45577f4e487b7100000000000000000000000000000000000000000000000000000000600052603260045260246000fd5b0160006101000a81548173ffffffffffffffffffffffffffffffffffffffff021916908373ffffffffffffffffffffffffffffffffffffffff1602179055507f399e1235657eaba28575a1c3b0de3e41ce529a6f109f3504c6bafa937e65361c33604051610eb39190611539565b60405180910390a1819050919050565b600033905090565b60008060009054906101000a900473ffffffffffffffffffffffffffffffffffffffff169050816000806101000a81548173ffffffffffffffffffffffffffffffffffffffff021916908373ffffffffffffffffffffffffffffffffffffffff1602179055508173ffffffffffffffffffffffffffffffffffffffff168173ffffffffffffffffffffffffffffffffffffffff167f8be0079c531659141344cd1fd0a4f28419497f9722a3daafe3b4186f6b6457e060405160405180910390a35050565b828054610f9b90611915565b90600052602060002090601f016020900481019282610fbd5760008555611004565b82601f10610fd657805160ff1916838001178555611004565b82800160010185558215611004579182015b82811115611003578251825591602001919060010190610fe8565b5b5090506110119190611038565b5090565b604051806101400160405280600a90602082028036833780820191505090505090565b5b80821115611051576000816000905550600101611039565b5090565b600061106861106384611747565b611716565b90508281526020810184848401111561108057600080fd5b61108b8482856118d3565b509392505050565b6000813590506110a281611a69565b92915050565b6000813590506110b781611a80565b92915050565b600082601f8301126110ce57600080fd5b81356110de848260208601611055565b91505092915050565b6000813590506110f681611a90565b92915050565b60006020828403121561110e57600080fd5b600061111c84828501611093565b91505092915050565b60008060006060848603121561113a57600080fd5b600084013567ffffffffffffffff81111561115457600080fd5b611160868287016110bd565b935050602084013567ffffffffffffffff81111561117d57600080fd5b611189868287016110bd565b925050604061119a868287016110a8565b9150509250925092565b600080600080608085870312156111ba57600080fd5b600085013567ffffffffffffffff8111156111d457600080fd5b6111e0878288016110bd565b94505060206111f1878288016110e7565b935050604085013567ffffffffffffffff81111561120e57600080fd5b61121a878288016110bd565b925050606085013567ffffffffffffffff81111561123757600080fd5b611243878288016110bd565b91505092959194509250565b60006020828403121561126157600080fd5b600061126f848285016110e7565b91505092915050565b60006112848383611290565b60208301905092915050565b61129981611866565b82525050565b6112a881611866565b82525050565b6112b781611796565b6112c181846117b9565b92506112cc82611777565b8060005b838110156112fd5781516112e48782611278565b96506112ef836117ac565b9250506001810190506112d0565b505050505050565b61130e81611878565b82525050565b61131d816118c1565b82525050565b600061132e826117a1565b61133881856117d5565b93506113488185602086016118e2565b61135181611a37565b840191505092915050565b6000815461136981611915565b61137381866117c4565b9450600182166000811461138e57600181146113a0576113d3565b60ff19831686526020860193506113d3565b6113a985611781565b60005b838110156113cb578154818901526001820191506020810190506113ac565b808801955050505b50505092915050565b60006113e96026836117d5565b91507f4f776e61626c653a206e6577206f776e657220697320746865207a65726f206160008301527f64647265737300000000000000000000000000000000000000000000000000006020830152604082019050919050565b600061144f6020836117d5565b91507f4f776e61626c653a2063616c6c6572206973206e6f7420746865206f776e65726000830152602082019050919050565b600060a08301600080840154905061149981611947565b6114a66000870182611290565b506001840185830360208701526114bd838261135c565b925050600284015490506114d081611961565b6114dd604087018261151b565b506003840185830360608701526114f4838261135c565b92505060048401858303608087015261150d838261135c565b925050819250505092915050565b611524816118b7565b82525050565b611533816118b7565b82525050565b600060208201905061154e600083018461129f565b92915050565b6000608082019050611569600083018761129f565b818103602083015261157b8186611323565b9050818103604083015261158f8185611323565b905061159e606083018461152a565b95945050505050565b600060a0820190506115bc600083018861129f565b6115c9602083018761152a565b6115d66040830186611314565b81810360608301526115e88185611323565b905081810360808301526115fc8184611323565b90509695505050505050565b60006101408201905061161e60008301846112ae565b92915050565b60006020820190506116396000830184611305565b92915050565b600060808201905081810360008301526116598187611323565b9050611668602083018661152a565b818103604083015261167a8185611323565b9050818103606083015261168e8184611323565b905095945050505050565b600060208201905081810360008301526116b2816113dc565b9050919050565b600060208201905081810360008301526116d281611442565b9050919050565b600060208201905081810360008301526116f38184611482565b905092915050565b6000602082019050611710600083018461152a565b92915050565b6000604051905081810181811067ffffffffffffffff8211171561173d5761173c611a08565b5b8060405250919050565b600067ffffffffffffffff82111561176257611761611a08565b5b601f19601f8301169050602081019050919050565b6000819050919050565b60008190508160005260206000209050919050565b6000600a9050919050565b600081519050919050565b6000602082019050919050565b600081905092915050565b600082825260208201905092915050565b600082825260208201905092915050565b60006117f1826118b7565b91506117fc836118b7565b9250827fffffffffffffffffffffffffffffffffffffffffffffffffffffffffffffffff038211156118315761183061197b565b5b828201905092915050565b600073ffffffffffffffffffffffffffffffffffffffff82169050919050565b6000819050919050565b600061187182611897565b9050919050565b60008115159050919050565b600081905061189282611a55565b919050565b600073ffffffffffffffffffffffffffffffffffffffff82169050919050565b6000819050919050565b60006118cc82611884565b9050919050565b82818337600083830152505050565b60005b838110156119005780820151818401526020810190506118e5565b8381111561190f576000848401525b50505050565b6000600282049050600182168061192d57607f821691505b60208210811415611941576119406119d9565b5b50919050565b600061195a61195583611a48565b61183c565b9050919050565b600061197461196f83611a48565b61185c565b9050919050565b7f4e487b7100000000000000000000000000000000000000000000000000000000600052601160045260246000fd5b7f4e487b7100000000000000000000000000000000000000000000000000000000600052602160045260246000fd5b7f4e487b7100000000000000000000000000000000000000000000000000000000600052602260045260246000fd5b7f4e487b7100000000000000000000000000000000000000000000000000000000600052604160045260246000fd5b6000601f19601f8301169050919050565b60008160001c9050919050565b60038110611a6657611a656119aa565b5b50565b611a7281611866565b8114611a7d57600080fd5b50565b60038110611a8d57600080fd5b50565b611a99816118b7565b8114611aa457600080fd5b5056fea26469706673582212203a99856e2026a4ae12b4b00975dd0000191223059e45d082c95f533f811c13ca64736f6c63430008000033",
  "immutableReferences": {},
  "source": "// SPDX-License-Identifier: MIT\npragma solidity 0.8.0;\n\nimport \"@openzeppelin/contracts/access/Ownable.sol\";\n\n\n/// @title Contract for healthRecord app\n/// @author Daniela Rodrguez\n/// @notice Allows a user to select different medical specialists, save personal patient's personal information and update medical reports\n\n\ncontract HealthRecord is Ownable{\n\n  // List of addresses of the doctors available in the app \n  address[10] public assignedDoctors;\n\n  // Address of the patient \n  address public ownerAddres;\n\n  // Used as a counter of medical reports\n   uint public reportsCount;\n \n   // <enum TreatmentStatus: Started, InProcess, Finished>\n    // 0 = Started    - The patient was diagnosed and is going to start the treatment recommended\n    // 1 = InProcess  - The patient is in treatment\n    // 2 = Finished   - The patient finished the medical treatment. \n   enum TreatmentStatus{Started, InProcess, Finished}\n\n   /// Patient Information\n  struct Patient {\n\t  address patientID;\n\t  string fullName;\n\t  uint256 weight;\n\t  string bloodType;\n\t  string contact;\n  }\n\n  /// Doctor Report Information\n   struct DoctorsReport{\n\t  address doctor;\n\t  uint timestamp;\n\t  TreatmentStatus treatmentStatus;\n\t  string treatment;\n\t  string medication;\n  }\n\n  // Patient owner of the Health Record\n  Patient private patient;\n\n   /* \n   * Events\n   */\n   /// @notice Emitted when a doctor is assigned \n   /// @param doctorAddress Doctor assigned address\n   event LogForDoctorAssigned(address doctorAddress);\n\n   /// @notice Emitted when a patient update his personal information \n   /// @param patient Patient which information is updated\n   event LogForupdatePatientInfo(Patient patient);\n\n   mapping (uint => DoctorsReport) public doctorReports;\n\n   /// @notice HealthRecord constructor called at deploy time\n   constructor() {\n    ownerAddres = msg.sender;\n\treportsCount= 0;\n    }\n\n  \n\t/// @notice Returns de doctorID assigned in the App\n    /// @param _doctorID doctorAssigned in the app\n    /// @dev updates the assigned doctor list with the doctorAddress\n\tfunction assigneDoctor(uint _doctorID) public returns (uint) {\n  \trequire(_doctorID >= 0 && _doctorID <= 19);\n  \tassignedDoctors[_doctorID] = msg.sender;\n\temit LogForDoctorAssigned(msg.sender);\n  \treturn _doctorID;\n\t}\n\n    /// @notice Returns de assigned doctor for a patient\n    function getAssignedDoctors() public view returns (address[10] memory) {\n    return assignedDoctors;\n    }\n\n\t/// @notice Update patient information\n    /// @param _fullName Patient's name\n\t/// @param _weight   Patient's weight\n\t/// @param _bloodType Patient's _bloodType\n\t/// @param _contact   Patient's contactNumber\n\tfunction updatePatientInfo(string memory _fullName, uint256 _weight,  string memory _bloodType, string memory _contact) public onlyOwner returns (bool) {\n\n\t\t  patient= Patient({\n\t\t  patientID: msg.sender,\n\t\t  fullName: _fullName,\n\t\t  weight: _weight,\n\t\t  bloodType: _bloodType,\n\t\t  contact: _contact\n\t   });\n\t   \n\t   emit LogForupdatePatientInfo(patient);\n\t   return true;\n\t }\n\n\t \n\t /// @notice Add a doctor report with a tratment state.\n\t /// @param _treatment    Patient's name\n\t /// @param _medication   Patient's weight\n\t function addDoctorReport(string memory _treatment, string memory _medication, TreatmentStatus status )  public{\n\n\t\tdoctorReports[reportsCount] = DoctorsReport({\n\t\t\tdoctor: msg.sender,\n\t\t\ttimestamp: block.timestamp,\n\t\t\ttreatmentStatus: status,\n\t\t\ttreatment: _treatment,\n\t\t\tmedication: _medication\n\t\t});\n\t\treportsCount+= 1;\n\t }\n\n\t /// @notice Return patient information\n\t function fetchPatient() public view \n     returns (string memory fullName, uint256 weight,  string memory bloodType, string memory contact)\n  { \n    fullName = patient.fullName; \n    weight = patient.weight; \n    bloodType = patient.bloodType; \n    contact = patient.contact; \n    return (fullName, weight, bloodType, contact); \n   } \n\n    /// @notice Return a a doctor report\n\t function fetchReport(uint reportNumber) public view \n     returns (address doctor, string memory treatment, string memory medication,  uint state)\n  { \n\tdoctor= doctorReports[reportNumber].doctor;\n    treatment= doctorReports[reportNumber].treatment;\n\tmedication= doctorReports[reportNumber].medication;\n\tstate= uint(doctorReports[reportNumber].treatmentStatus);\n    return (doctor, treatment, medication, state); \n   } \n\n\t function removeAsigneedDoctor(uint _doctorID) public{\n\t\t// TODO:\n\t}\n\n\tfunction updateDoctorReport(uint _reportsCount) public{\n\t\t// TODO:\n\t}\n\n\n\n\n}\n\n",
  "sourcePath": "/home/drodriguez/blockchain-developer-bootcamp-final-project/contracts/HealthRecord.sol",
  "compiler": {
    "name": "solc",
    "version": "0.8.0+commit.c7dfd78e.Emscripten.clang"
  },
  "schemaVersion": "3.4.3",
  "updatedAt": "2022-01-15T17:57:14.875Z",
  "devdoc": {
    "author": "Daniela Rodrguez",
    "events": {
      "LogForDoctorAssigned(address)": {
        "params": {
          "doctorAddress": "Doctor assigned address"
        }
      },
      "LogForupdatePatientInfo((address,string,uint256,string,string))": {
        "params": {
          "patient": "Patient which information is updated"
        }
      }
    },
    "kind": "dev",
    "methods": {
      "addDoctorReport(string,string,uint8)": {
        "params": {
          "_medication": "Patient's weight",
          "_treatment": "Patient's name"
        }
      },
      "assigneDoctor(uint256)": {
        "details": "updates the assigned doctor list with the doctorAddress",
        "params": {
          "_doctorID": "doctorAssigned in the app"
        }
      },
      "owner()": {
        "details": "Returns the address of the current owner."
      },
      "renounceOwnership()": {
        "details": "Leaves the contract without owner. It will not be possible to call `onlyOwner` functions anymore. Can only be called by the current owner. NOTE: Renouncing ownership will leave the contract without an owner, thereby removing any functionality that is only available to the owner."
      },
      "transferOwnership(address)": {
        "details": "Transfers ownership of the contract to a new account (`newOwner`). Can only be called by the current owner."
      },
      "updatePatientInfo(string,uint256,string,string)": {
        "params": {
          "_bloodType": "Patient's _bloodType",
          "_contact": "Patient's contactNumber",
          "_fullName": "Patient's name",
          "_weight": "Patient's weight"
        }
      }
    },
    "title": "Contract for healthRecord app",
    "version": 1
  },
  "userdoc": {
    "events": {
      "LogForDoctorAssigned(address)": {
        "notice": "Emitted when a doctor is assigned "
      },
      "LogForupdatePatientInfo((address,string,uint256,string,string))": {
        "notice": "Emitted when a patient update his personal information "
      }
    },
    "kind": "user",
    "methods": {
      "addDoctorReport(string,string,uint8)": {
        "notice": "Add a doctor report with a tratment state."
      },
      "assigneDoctor(uint256)": {
        "notice": "Returns de doctorID assigned in the App"
      },
      "constructor": {
        "notice": "HealthRecord constructor called at deploy time"
      },
      "fetchPatient()": {
        "notice": "Return patient information"
      },
      "fetchReport(uint256)": {
        "notice": "Return a a doctor report"
      },
      "getAssignedDoctors()": {
        "notice": "Returns de assigned doctor for a patient"
      },
      "updatePatientInfo(string,uint256,string,string)": {
        "notice": "Update patient information"
      }
    },
    "notice": "Allows a user to select different medical specialists, save personal patient's personal information and update medical reports",
    "version": 1
  }
}