{
  "contractName": "HealthRecord",
  "abi": [
    {
      "inputs": [],
      "stateMutability": "nonpayable",
      "type": "constructor"
    },
    {
      "anonymous": false,
      "inputs": [
        {
          "indexed": false,
          "internalType": "address",
          "name": "doctorAddress",
          "type": "address"
        }
      ],
      "name": "LogForDoctorAssigned",
      "type": "event"
    },
    {
      "anonymous": false,
      "inputs": [
        {
          "components": [
            {
              "internalType": "address",
              "name": "patientID",
              "type": "address"
            },
            {
              "internalType": "string",
              "name": "fullName",
              "type": "string"
            },
            {
              "internalType": "uint256",
              "name": "weight",
              "type": "uint256"
            },
            {
              "internalType": "string",
              "name": "bloodType",
              "type": "string"
            },
            {
              "internalType": "string",
              "name": "contact",
              "type": "string"
            }
          ],
          "indexed": false,
          "internalType": "struct HealthRecord.Patient",
          "name": "patient",
          "type": "tuple"
        }
      ],
      "name": "LogForupdatePatientInfo",
      "type": "event"
    },
    {
      "anonymous": false,
      "inputs": [
        {
          "indexed": true,
          "internalType": "address",
          "name": "previousOwner",
          "type": "address"
        },
        {
          "indexed": true,
          "internalType": "address",
          "name": "newOwner",
          "type": "address"
        }
      ],
      "name": "OwnershipTransferred",
      "type": "event"
    },
    {
      "inputs": [
        {
          "internalType": "uint256",
          "name": "",
          "type": "uint256"
        }
      ],
      "name": "assignedDoctors",
      "outputs": [
        {
          "internalType": "address",
          "name": "",
          "type": "address"
        }
      ],
      "stateMutability": "view",
      "type": "function",
      "constant": true
    },
    {
      "inputs": [
        {
          "internalType": "uint256",
          "name": "",
          "type": "uint256"
        }
      ],
      "name": "doctorReports",
      "outputs": [
        {
          "internalType": "address",
          "name": "doctor",
          "type": "address"
        },
        {
          "internalType": "uint256",
          "name": "timestamp",
          "type": "uint256"
        },
        {
          "internalType": "enum HealthRecord.TreatmentStatus",
          "name": "treatmentStatus",
          "type": "uint8"
        },
        {
          "internalType": "string",
          "name": "treatment",
          "type": "string"
        },
        {
          "internalType": "string",
          "name": "medication",
          "type": "string"
        }
      ],
      "stateMutability": "view",
      "type": "function",
      "constant": true
    },
    {
      "inputs": [],
      "name": "owner",
      "outputs": [
        {
          "internalType": "address",
          "name": "",
          "type": "address"
        }
      ],
      "stateMutability": "view",
      "type": "function",
      "constant": true
    },
    {
      "inputs": [],
      "name": "ownerAddres",
      "outputs": [
        {
          "internalType": "address",
          "name": "",
          "type": "address"
        }
      ],
      "stateMutability": "view",
      "type": "function",
      "constant": true
    },
    {
      "inputs": [],
      "name": "renounceOwnership",
      "outputs": [],
      "stateMutability": "nonpayable",
      "type": "function"
    },
    {
      "inputs": [],
      "name": "reportsCount",
      "outputs": [
        {
          "internalType": "uint256",
          "name": "",
          "type": "uint256"
        }
      ],
      "stateMutability": "view",
      "type": "function",
      "constant": true
    },
    {
      "inputs": [
        {
          "internalType": "address",
          "name": "newOwner",
          "type": "address"
        }
      ],
      "name": "transferOwnership",
      "outputs": [],
      "stateMutability": "nonpayable",
      "type": "function"
    },
    {
      "inputs": [
        {
          "internalType": "uint256",
          "name": "_doctorID",
          "type": "uint256"
        }
      ],
      "name": "assigneDoctor",
      "outputs": [
        {
          "internalType": "uint256",
          "name": "",
          "type": "uint256"
        }
      ],
      "stateMutability": "nonpayable",
      "type": "function"
    },
    {
      "inputs": [],
      "name": "getAssignedDoctors",
      "outputs": [
        {
          "internalType": "address[10]",
          "name": "",
          "type": "address[10]"
        }
      ],
      "stateMutability": "view",
      "type": "function",
      "constant": true
    },
    {
      "inputs": [
        {
          "internalType": "string",
          "name": "_fullName",
          "type": "string"
        },
        {
          "internalType": "uint256",
          "name": "_weight",
          "type": "uint256"
        },
        {
          "internalType": "string",
          "name": "_bloodType",
          "type": "string"
        },
        {
          "internalType": "string",
          "name": "_contact",
          "type": "string"
        }
      ],
      "name": "updatePatientInfo",
      "outputs": [
        {
          "internalType": "bool",
          "name": "",
          "type": "bool"
        }
      ],
      "stateMutability": "nonpayable",
      "type": "function"
    },
    {
      "inputs": [
        {
          "internalType": "string",
          "name": "_treatment",
          "type": "string"
        },
        {
          "internalType": "string",
          "name": "_medication",
          "type": "string"
        }
      ],
      "name": "addDoctorReport",
      "outputs": [],
      "stateMutability": "nonpayable",
      "type": "function"
    },
    {
      "inputs": [],
      "name": "fetchPatient",
      "outputs": [
        {
          "internalType": "string",
          "name": "fullName",
          "type": "string"
        },
        {
          "internalType": "uint256",
          "name": "weight",
          "type": "uint256"
        },
        {
          "internalType": "string",
          "name": "bloodType",
          "type": "string"
        },
        {
          "internalType": "string",
          "name": "contact",
          "type": "string"
        }
      ],
      "stateMutability": "view",
      "type": "function",
      "constant": true
    },
    {
      "inputs": [
        {
          "internalType": "uint256",
          "name": "reportNumber",
          "type": "uint256"
        }
      ],
      "name": "fetchReport",
      "outputs": [
        {
          "internalType": "address",
          "name": "doctor",
          "type": "address"
        },
        {
          "internalType": "string",
          "name": "treatment",
          "type": "string"
        },
        {
          "internalType": "string",
          "name": "medication",
          "type": "string"
        },
        {
          "internalType": "uint256",
          "name": "state",
          "type": "uint256"
        }
      ],
      "stateMutability": "view",
      "type": "function",
      "constant": true
    },
    {
      "inputs": [
        {
          "internalType": "uint256",
          "name": "_doctorID",
          "type": "uint256"
        }
      ],
      "name": "removeAsigneedDoctor",
      "outputs": [],
      "stateMutability": "nonpayable",
      "type": "function"
    },
    {
      "inputs": [
        {
          "internalType": "uint256",
          "name": "_reportsCount",
          "type": "uint256"
        }
      ],
      "name": "updateDoctorReport",
      "outputs": [],
      "stateMutability": "nonpayable",
      "type": "function"
    }
  ],
  "bytecode": "0x608060405234801561001057600080fd5b5061002d61002261007b60201b60201c565b61008360201b60201c565b33600b60006101000a81548173ffffffffffffffffffffffffffffffffffffffff021916908373ffffffffffffffffffffffffffffffffffffffff1602179055506000600c81905550610147565b600033905090565b60008060009054906101000a900473ffffffffffffffffffffffffffffffffffffffff169050816000806101000a81548173ffffffffffffffffffffffffffffffffffffffff021916908373ffffffffffffffffffffffffffffffffffffffff1602179055508173ffffffffffffffffffffffffffffffffffffffff168173ffffffffffffffffffffffffffffffffffffffff167f8be0079c531659141344cd1fd0a4f28419497f9722a3daafe3b4186f6b6457e060405160405180910390a35050565b611aa5806101566000396000f3fe608060405234801561001057600080fd5b50600436106100f55760003560e01c80637e8597fb11610097578063e2c4ed1b11610066578063e2c4ed1b14610266578063e5b51e6a14610284578063f2fde38b146102b8578063feff4c76146102d4576100f5565b80637e8597fb146101db57806389ff0dfa1461020e5780638da5cb5b1461022c578063ca6ab43b1461024a576100f5565b806371848e09116100d357806371848e091461013e5780637871bb281461016e5780637c333fbb1461018f5780637d524938146101bf576100f5565b80633e0c27f0146100fa578063558dde0014610118578063715018a614610134575b600080fd5b610102610304565b60405161010f91906116d3565b60405180910390f35b610132600480360381019061012d9190611227565b61030a565b005b61013c61030d565b005b6101586004803603810190610153919061117c565b610395565b60405161016591906115fc565b60405180910390f35b610176610541565b6040516101869493929190611617565b60405180910390f35b6101a960048036038101906101a49190611227565b610706565b6040516101b69190611511565b60405180910390f35b6101d960048036038101906101d49190611110565b61073c565b005b6101f560048036038101906101f09190611227565b6108c9565b604051610205949392919061152c565b60405180910390f35b610216610ab0565b6040516102239190611511565b60405180910390f35b610234610ad6565b6040516102419190611511565b60405180910390f35b610264600480360381019061025f9190611227565b610aff565b005b61026e610b02565b60405161027b91906115e0565b60405180910390f35b61029e60048036038101906102999190611227565b610b83565b6040516102af95949392919061157f565b60405180910390f35b6102d260048036038101906102cd91906110e7565b610cf6565b005b6102ee60048036038101906102e99190611227565b610dee565b6040516102fb91906116d3565b60405180910390f35b600c5481565b50565b610315610ec3565b73ffffffffffffffffffffffffffffffffffffffff16610333610ad6565b73ffffffffffffffffffffffffffffffffffffffff1614610389576040517f08c379a000000000000000000000000000000000000000000000000000000000815260040161038090611691565b60405180910390fd5b6103936000610ecb565b565b600061039f610ec3565b73ffffffffffffffffffffffffffffffffffffffff166103bd610ad6565b73ffffffffffffffffffffffffffffffffffffffff1614610413576040517f08c379a000000000000000000000000000000000000000000000000000000000815260040161040a90611691565b60405180910390fd5b6040518060a001604052803373ffffffffffffffffffffffffffffffffffffffff16815260200186815260200185815260200184815260200183815250600d60008201518160000160006101000a81548173ffffffffffffffffffffffffffffffffffffffff021916908373ffffffffffffffffffffffffffffffffffffffff16021790555060208201518160010190805190602001906104b5929190610f8f565b506040820151816002015560608201518160030190805190602001906104dc929190610f8f565b5060808201518160040190805190602001906104f9929190610f8f565b509050507fcc672764fa3f286076f9b381fe3174ba12fa0824585b8c010a272cd9bad1587a600d60405161052d91906116b1565b60405180910390a160019050949350505050565b60606000606080600d6001018054610558906118ed565b80601f0160208091040260200160405190810160405280929190818152602001828054610584906118ed565b80156105d15780601f106105a6576101008083540402835291602001916105d1565b820191906000526020600020905b8154815290600101906020018083116105b457829003601f168201915b50505050509350600d600201549250600d60030180546105f0906118ed565b80601f016020809104026020016040519081016040528092919081815260200182805461061c906118ed565b80156106695780601f1061063e57610100808354040283529160200191610669565b820191906000526020600020905b81548152906001019060200180831161064c57829003601f168201915b50505050509150600d6004018054610680906118ed565b80601f01602080910402602001604051908101604052809291908181526020018280546106ac906118ed565b80156106f95780601f106106ce576101008083540402835291602001916106f9565b820191906000526020600020905b8154815290600101906020018083116106dc57829003601f168201915b5050505050905090919293565b600181600a811061071657600080fd5b016000915054906101000a900473ffffffffffffffffffffffffffffffffffffffff1681565b6040518060a001604052803373ffffffffffffffffffffffffffffffffffffffff168152602001428152602001600060028111156107a3577f4e487b7100000000000000000000000000000000000000000000000000000000600052602160045260246000fd5b81526020018381526020018281525060126000600c54815260200190815260200160002060008201518160000160006101000a81548173ffffffffffffffffffffffffffffffffffffffff021916908373ffffffffffffffffffffffffffffffffffffffff1602179055506020820151816001015560408201518160020160006101000a81548160ff02191690836002811115610869577f4e487b7100000000000000000000000000000000000000000000000000000000600052602160045260246000fd5b0217905550606082015181600301908051906020019061088a929190610f8f565b5060808201518160040190805190602001906108a7929190610f8f565b509050506001600c60008282546108be91906117be565b925050819055505050565b600060608060006012600086815260200190815260200160002060000160009054906101000a900473ffffffffffffffffffffffffffffffffffffffff16935060126000868152602001908152602001600020600301805461092a906118ed565b80601f0160208091040260200160405190810160405280929190818152602001828054610956906118ed565b80156109a35780601f10610978576101008083540402835291602001916109a3565b820191906000526020600020905b81548152906001019060200180831161098657829003601f168201915b505050505092506012600086815260200190815260200160002060040180546109cb906118ed565b80601f01602080910402602001604051908101604052809291908181526020018280546109f7906118ed565b8015610a445780601f10610a1957610100808354040283529160200191610a44565b820191906000526020600020905b815481529060010190602001808311610a2757829003601f168201915b505050505091506012600086815260200190815260200160002060020160009054906101000a900460ff166002811115610aa7577f4e487b7100000000000000000000000000000000000000000000000000000000600052602160045260246000fd5b90509193509193565b600b60009054906101000a900473ffffffffffffffffffffffffffffffffffffffff1681565b60008060009054906101000a900473ffffffffffffffffffffffffffffffffffffffff16905090565b50565b610b0a611015565b6001600a806020026040519081016040528092919082600a8015610b79576020028201915b8160009054906101000a900473ffffffffffffffffffffffffffffffffffffffff1673ffffffffffffffffffffffffffffffffffffffff1681526020019060010190808311610b2f575b5050505050905090565b60126020528060005260406000206000915090508060000160009054906101000a900473ffffffffffffffffffffffffffffffffffffffff16908060010154908060020160009054906101000a900460ff1690806003018054610be5906118ed565b80601f0160208091040260200160405190810160405280929190818152602001828054610c11906118ed565b8015610c5e5780601f10610c3357610100808354040283529160200191610c5e565b820191906000526020600020905b815481529060010190602001808311610c4157829003601f168201915b505050505090806004018054610c73906118ed565b80601f0160208091040260200160405190810160405280929190818152602001828054610c9f906118ed565b8015610cec5780601f10610cc157610100808354040283529160200191610cec565b820191906000526020600020905b815481529060010190602001808311610ccf57829003601f168201915b5050505050905085565b610cfe610ec3565b73ffffffffffffffffffffffffffffffffffffffff16610d1c610ad6565b73ffffffffffffffffffffffffffffffffffffffff1614610d72576040517f08c379a0000000000000000000000000000000000000000000000000000000008152600401610d6990611691565b60405180910390fd5b600073ffffffffffffffffffffffffffffffffffffffff168173ffffffffffffffffffffffffffffffffffffffff161415610de2576040517f08c379a0000000000000000000000000000000000000000000000000000000008152600401610dd990611671565b60405180910390fd5b610deb81610ecb565b50565b6000808210158015610e01575060138211155b610e0a57600080fd5b33600183600a8110610e45577f4e487b7100000000000000000000000000000000000000000000000000000000600052603260045260246000fd5b0160006101000a81548173ffffffffffffffffffffffffffffffffffffffff021916908373ffffffffffffffffffffffffffffffffffffffff1602179055507f399e1235657eaba28575a1c3b0de3e41ce529a6f109f3504c6bafa937e65361c33604051610eb39190611511565b60405180910390a1819050919050565b600033905090565b60008060009054906101000a900473ffffffffffffffffffffffffffffffffffffffff169050816000806101000a81548173ffffffffffffffffffffffffffffffffffffffff021916908373ffffffffffffffffffffffffffffffffffffffff1602179055508173ffffffffffffffffffffffffffffffffffffffff168173ffffffffffffffffffffffffffffffffffffffff167f8be0079c531659141344cd1fd0a4f28419497f9722a3daafe3b4186f6b6457e060405160405180910390a35050565b828054610f9b906118ed565b90600052602060002090601f016020900481019282610fbd5760008555611004565b82601f10610fd657805160ff1916838001178555611004565b82800160010185558215611004579182015b82811115611003578251825591602001919060010190610fe8565b5b5090506110119190611038565b5090565b604051806101400160405280600a90602082028036833780820191505090505090565b5b80821115611051576000816000905550600101611039565b5090565b60006110686110638461171f565b6116ee565b90508281526020810184848401111561108057600080fd5b61108b8482856118ab565b509392505050565b6000813590506110a281611a41565b92915050565b600082601f8301126110b957600080fd5b81356110c9848260208601611055565b91505092915050565b6000813590506110e181611a58565b92915050565b6000602082840312156110f957600080fd5b600061110784828501611093565b91505092915050565b6000806040838503121561112357600080fd5b600083013567ffffffffffffffff81111561113d57600080fd5b611149858286016110a8565b925050602083013567ffffffffffffffff81111561116657600080fd5b611172858286016110a8565b9150509250929050565b6000806000806080858703121561119257600080fd5b600085013567ffffffffffffffff8111156111ac57600080fd5b6111b8878288016110a8565b94505060206111c9878288016110d2565b935050604085013567ffffffffffffffff8111156111e657600080fd5b6111f2878288016110a8565b925050606085013567ffffffffffffffff81111561120f57600080fd5b61121b878288016110a8565b91505092959194509250565b60006020828403121561123957600080fd5b6000611247848285016110d2565b91505092915050565b600061125c8383611268565b60208301905092915050565b6112718161183e565b82525050565b6112808161183e565b82525050565b61128f8161176e565b6112998184611791565b92506112a48261174f565b8060005b838110156112d55781516112bc8782611250565b96506112c783611784565b9250506001810190506112a8565b505050505050565b6112e681611850565b82525050565b6112f581611899565b82525050565b600061130682611779565b61131081856117ad565b93506113208185602086016118ba565b61132981611a0f565b840191505092915050565b60008154611341816118ed565b61134b818661179c565b945060018216600081146113665760018114611378576113ab565b60ff19831686526020860193506113ab565b61138185611759565b60005b838110156113a357815481890152600182019150602081019050611384565b808801955050505b50505092915050565b60006113c16026836117ad565b91507f4f776e61626c653a206e6577206f776e657220697320746865207a65726f206160008301527f64647265737300000000000000000000000000000000000000000000000000006020830152604082019050919050565b60006114276020836117ad565b91507f4f776e61626c653a2063616c6c6572206973206e6f7420746865206f776e65726000830152602082019050919050565b600060a0830160008084015490506114718161191f565b61147e6000870182611268565b506001840185830360208701526114958382611334565b925050600284015490506114a881611939565b6114b560408701826114f3565b506003840185830360608701526114cc8382611334565b9250506004840185830360808701526114e58382611334565b925050819250505092915050565b6114fc8161188f565b82525050565b61150b8161188f565b82525050565b60006020820190506115266000830184611277565b92915050565b60006080820190506115416000830187611277565b818103602083015261155381866112fb565b9050818103604083015261156781856112fb565b90506115766060830184611502565b95945050505050565b600060a0820190506115946000830188611277565b6115a16020830187611502565b6115ae60408301866112ec565b81810360608301526115c081856112fb565b905081810360808301526115d481846112fb565b90509695505050505050565b6000610140820190506115f66000830184611286565b92915050565b600060208201905061161160008301846112dd565b92915050565b6000608082019050818103600083015261163181876112fb565b90506116406020830186611502565b818103604083015261165281856112fb565b9050818103606083015261166681846112fb565b905095945050505050565b6000602082019050818103600083015261168a816113b4565b9050919050565b600060208201905081810360008301526116aa8161141a565b9050919050565b600060208201905081810360008301526116cb818461145a565b905092915050565b60006020820190506116e86000830184611502565b92915050565b6000604051905081810181811067ffffffffffffffff82111715611715576117146119e0565b5b8060405250919050565b600067ffffffffffffffff82111561173a576117396119e0565b5b601f19601f8301169050602081019050919050565b6000819050919050565b60008190508160005260206000209050919050565b6000600a9050919050565b600081519050919050565b6000602082019050919050565b600081905092915050565b600082825260208201905092915050565b600082825260208201905092915050565b60006117c98261188f565b91506117d48361188f565b9250827fffffffffffffffffffffffffffffffffffffffffffffffffffffffffffffffff0382111561180957611808611953565b5b828201905092915050565b600073ffffffffffffffffffffffffffffffffffffffff82169050919050565b6000819050919050565b60006118498261186f565b9050919050565b60008115159050919050565b600081905061186a82611a2d565b919050565b600073ffffffffffffffffffffffffffffffffffffffff82169050919050565b6000819050919050565b60006118a48261185c565b9050919050565b82818337600083830152505050565b60005b838110156118d85780820151818401526020810190506118bd565b838111156118e7576000848401525b50505050565b6000600282049050600182168061190557607f821691505b60208210811415611919576119186119b1565b5b50919050565b600061193261192d83611a20565b611814565b9050919050565b600061194c61194783611a20565b611834565b9050919050565b7f4e487b7100000000000000000000000000000000000000000000000000000000600052601160045260246000fd5b7f4e487b7100000000000000000000000000000000000000000000000000000000600052602160045260246000fd5b7f4e487b7100000000000000000000000000000000000000000000000000000000600052602260045260246000fd5b7f4e487b7100000000000000000000000000000000000000000000000000000000600052604160045260246000fd5b6000601f19601f8301169050919050565b60008160001c9050919050565b60038110611a3e57611a3d611982565b5b50565b611a4a8161183e565b8114611a5557600080fd5b50565b611a618161188f565b8114611a6c57600080fd5b5056fea2646970667358221220cc8e7499264e0308d58ea4f8a198db4f529dbe4fc379dd91b79cf13dc1092c1c64736f6c63430008000033",
  "immutableReferences": {},
  "source": "// SPDX-License-Identifier: MIT\npragma solidity 0.8.0;\n\nimport \"@openzeppelin/contracts/access/Ownable.sol\";\n\n\n/// @title Contract for healthRecord app\n/// @author Daniela Rodrguez\n/// @notice Allows a user to select different medical specialists, save personal patient's personal information and update medical reports\n\n\ncontract HealthRecord is Ownable{\n\n  // List of addresses of the doctors available in the app \n  address[10] public assignedDoctors;\n\n  // Address of the patient \n  address public ownerAddres;\n\n  // Used as a counter of medical reports\n   uint public reportsCount;\n \n   // <enum TreatmentStatus: Started, InProcess, Finished>\n    // 0 = Started    - The patient was diagnosed and is going to start the treatment recommended\n    // 1 = InProcess  - The patient is in treatment\n    // 2 = Finished   - The patient finished the medical treatment. \n   enum TreatmentStatus{Started, InProcess, Finished}\n\n   /// Patient Information\n  struct Patient {\n\t  address patientID;\n\t  string fullName;\n\t  uint256 weight;\n\t  string bloodType;\n\t  string contact;\n  }\n\n  /// Doctor Report Information\n   struct DoctorsReport{\n\t  address doctor;\n\t  uint timestamp;\n\t  TreatmentStatus treatmentStatus;\n\t  string treatment;\n\t  string medication;\n  }\n\n  // Patient owner of the Health Record\n  Patient private patient;\n\n   /* \n   * Events\n   */\n   /// @notice Emitted when a doctor is assigned \n   /// @param doctorAddress Doctor assigned address\n   event LogForDoctorAssigned(address doctorAddress);\n\n   /// @notice Emitted when a patient update his personal information \n   /// @param patient Patient which information is updated\n   event LogForupdatePatientInfo(Patient patient);\n\n   mapping (uint => DoctorsReport) public doctorReports;\n\n   /// @notice HealthRecord constructor called at deploy time\n   constructor() {\n    ownerAddres = msg.sender;\n\treportsCount= 0;\n    }\n\n  \n\t/// @notice Returns de doctorID assigned in the App\n    /// @param _doctorID doctorAssigned in the app\n    /// @dev updates the assigned doctor list with the doctorAddress\n\tfunction assigneDoctor(uint _doctorID) public returns (uint) {\n  \trequire(_doctorID >= 0 && _doctorID <= 19);\n  \tassignedDoctors[_doctorID] = msg.sender;\n\temit LogForDoctorAssigned(msg.sender);\n  \treturn _doctorID;\n\t}\n\n    /// @notice Returns de assigned doctor for a patient\n    function getAssignedDoctors() public view returns (address[10] memory) {\n    return assignedDoctors;\n    }\n\n\t/// @notice Update patient information\n    /// @param _fullName Patient's name\n\t/// @param _weight   Patient's weight\n\t/// @param _bloodType Patient's _bloodType\n\t/// @param _contact   Patient's contactNumber\n\tfunction updatePatientInfo(string memory _fullName, uint256 _weight,  string memory _bloodType, string memory _contact) public onlyOwner returns (bool) {\n\n\t\t  patient= Patient({\n\t\t  patientID: msg.sender,\n\t\t  fullName: _fullName,\n\t\t  weight: _weight,\n\t\t  bloodType: _bloodType,\n\t\t  contact: _contact\n\t   });\n\t   \n\t   emit LogForupdatePatientInfo(patient);\n\t   return true;\n\t }\n\n\t \n\t /// @notice Add a doctor report with a tratment state.\n\t /// @param _treatment    Patient's name\n\t /// @param _medication   Patient's weight\n\t function addDoctorReport(string memory _treatment, string memory _medication )  public{\n\n\t\tdoctorReports[reportsCount] = DoctorsReport({\n\t\t\tdoctor: msg.sender,\n\t\t\ttimestamp: block.timestamp,\n\t\t\ttreatmentStatus: TreatmentStatus.Started,\n\t\t\ttreatment: _treatment,\n\t\t\tmedication: _medication\n\t\t});\n\t\treportsCount+= 1;\n\t }\n\n\t /// @notice Return patient information\n\t function fetchPatient() public view \n     returns (string memory fullName, uint256 weight,  string memory bloodType, string memory contact)\n  { \n    fullName = patient.fullName; \n    weight = patient.weight; \n    bloodType = patient.bloodType; \n    contact = patient.contact; \n    return (fullName, weight, bloodType, contact); \n   } \n\n    /// @notice Return a a doctor report\n\t function fetchReport(uint reportNumber) public view \n     returns (address doctor, string memory treatment, string memory medication,  uint state)\n  { \n\tdoctor= doctorReports[reportNumber].doctor;\n    treatment= doctorReports[reportNumber].treatment;\n\tmedication= doctorReports[reportNumber].medication;\n\tstate= uint(doctorReports[reportNumber].treatmentStatus);\n    return (doctor, treatment, medication, state); \n   } \n\n\t function removeAsigneedDoctor(uint _doctorID) public{\n\t\t// TODO:\n\t}\n\n\tfunction updateDoctorReport(uint _reportsCount) public{\n\t\t// TODO:\n\t}\n\n\n\n\n}\n\n",
  "sourcePath": "/home/drodriguez/blockchain-developer-bootcamp-final-project/contracts/HealthRecord.sol",
  "compiler": {
    "name": "solc",
    "version": "0.8.0+commit.c7dfd78e.Emscripten.clang"
  },
  "schemaVersion": "3.4.3",
  "updatedAt": "2022-01-15T18:29:00.684Z",
  "networkType": "ethereum",
  "devdoc": {
    "author": "Daniela Rodrguez",
    "events": {
      "LogForDoctorAssigned(address)": {
        "params": {
          "doctorAddress": "Doctor assigned address"
        }
      },
      "LogForupdatePatientInfo((address,string,uint256,string,string))": {
        "params": {
          "patient": "Patient which information is updated"
        }
      }
    },
    "kind": "dev",
    "methods": {
      "addDoctorReport(string,string)": {
        "params": {
          "_medication": "Patient's weight",
          "_treatment": "Patient's name"
        }
      },
      "assigneDoctor(uint256)": {
        "details": "updates the assigned doctor list with the doctorAddress",
        "params": {
          "_doctorID": "doctorAssigned in the app"
        }
      },
      "owner()": {
        "details": "Returns the address of the current owner."
      },
      "renounceOwnership()": {
        "details": "Leaves the contract without owner. It will not be possible to call `onlyOwner` functions anymore. Can only be called by the current owner. NOTE: Renouncing ownership will leave the contract without an owner, thereby removing any functionality that is only available to the owner."
      },
      "transferOwnership(address)": {
        "details": "Transfers ownership of the contract to a new account (`newOwner`). Can only be called by the current owner."
      },
      "updatePatientInfo(string,uint256,string,string)": {
        "params": {
          "_bloodType": "Patient's _bloodType",
          "_contact": "Patient's contactNumber",
          "_fullName": "Patient's name",
          "_weight": "Patient's weight"
        }
      }
    },
    "title": "Contract for healthRecord app",
    "version": 1
  },
  "userdoc": {
    "events": {
      "LogForDoctorAssigned(address)": {
        "notice": "Emitted when a doctor is assigned "
      },
      "LogForupdatePatientInfo((address,string,uint256,string,string))": {
        "notice": "Emitted when a patient update his personal information "
      }
    },
    "kind": "user",
    "methods": {
      "addDoctorReport(string,string)": {
        "notice": "Add a doctor report with a tratment state."
      },
      "assigneDoctor(uint256)": {
        "notice": "Returns de doctorID assigned in the App"
      },
      "constructor": {
        "notice": "HealthRecord constructor called at deploy time"
      },
      "fetchPatient()": {
        "notice": "Return patient information"
      },
      "fetchReport(uint256)": {
        "notice": "Return a a doctor report"
      },
      "getAssignedDoctors()": {
        "notice": "Returns de assigned doctor for a patient"
      },
      "updatePatientInfo(string,uint256,string,string)": {
        "notice": "Update patient information"
      }
    },
    "notice": "Allows a user to select different medical specialists, save personal patient's personal information and update medical reports",
    "version": 1
  }
}