{
  "contractName": "HealthRecord",
  "abi": [
    {
      "inputs": [
        {
          "internalType": "uint256",
          "name": "",
          "type": "uint256"
        }
      ],
      "name": "assignedDoctors",
      "outputs": [
        {
          "internalType": "address",
          "name": "",
          "type": "address"
        }
      ],
      "stateMutability": "view",
      "type": "function",
      "constant": true
    },
    {
      "inputs": [
        {
          "internalType": "uint256",
          "name": "_doctorID",
          "type": "uint256"
        }
      ],
      "name": "assigneDoctor",
      "outputs": [
        {
          "internalType": "uint256",
          "name": "",
          "type": "uint256"
        }
      ],
      "stateMutability": "nonpayable",
      "type": "function"
    },
    {
      "inputs": [],
      "name": "getAssignedDoctors",
      "outputs": [
        {
          "internalType": "address[90]",
          "name": "",
          "type": "address[90]"
        }
      ],
      "stateMutability": "view",
      "type": "function",
      "constant": true
    }
  ],
  "bytecode": "0x608060405234801561001057600080fd5b50610430806100206000396000f3fe608060405234801561001057600080fd5b50600436106100415760003560e01c80637c333fbb14610046578063e2c4ed1b14610076578063feff4c7614610094575b600080fd5b610060600480360381019061005b9190610251565b6100c4565b60405161006d91906102bf565b60405180910390f35b61007e6100fa565b60405161008b9190610385565b60405180910390f35b6100ae60048036038101906100a99190610251565b61017b565b6040516100bb91906103b0565b60405180910390f35b600081605a81106100d457600080fd5b016000915054906101000a900473ffffffffffffffffffffffffffffffffffffffff1681565b6101026101f3565b6000605a806020026040519081016040528092919082605a8015610171576020028201915b8160009054906101000a900473ffffffffffffffffffffffffffffffffffffffff1673ffffffffffffffffffffffffffffffffffffffff1681526020019060010190808311610127575b5050505050905090565b600080821015801561018e575060598211155b61019757600080fd5b33600083605a81106101ac576101ab6103cb565b5b0160006101000a81548173ffffffffffffffffffffffffffffffffffffffff021916908373ffffffffffffffffffffffffffffffffffffffff160217905550819050919050565b60405180610b400160405280605a90602082028036833780820191505090505090565b600080fd5b6000819050919050565b61022e8161021b565b811461023957600080fd5b50565b60008135905061024b81610225565b92915050565b60006020828403121561026757610266610216565b5b60006102758482850161023c565b91505092915050565b600073ffffffffffffffffffffffffffffffffffffffff82169050919050565b60006102a98261027e565b9050919050565b6102b98161029e565b82525050565b60006020820190506102d460008301846102b0565b92915050565b6000605a9050919050565b600081905092915050565b6000819050919050565b6103038161029e565b82525050565b600061031583836102fa565b60208301905092915050565b6000602082019050919050565b610337816102da565b61034181846102e5565b925061034c826102f0565b8060005b8381101561037d5781516103648782610309565b965061036f83610321565b925050600181019050610350565b505050505050565b6000610b408201905061039b600083018461032e565b92915050565b6103aa8161021b565b82525050565b60006020820190506103c560008301846103a1565b92915050565b7f4e487b7100000000000000000000000000000000000000000000000000000000600052603260045260246000fdfea26469706673582212201ed83be968a49df0a0abc090ca058b2fedd4577ea49485f6cb3d650c87ba92ea64736f6c634300080b0033",
  "immutableReferences": {},
  "source": "pragma solidity ^0.8.0;\n\ncontract HealthRecord {\n\n  address[90] public assignedDoctors;\n\n\tfunction assigneDoctor(uint _doctorID) public returns (uint) {\n  \t require(_doctorID >= 0 && _doctorID <= 89);\n  \tassignedDoctors[_doctorID] = msg.sender;\n  \treturn _doctorID;\n\t}\n\n  \n    function getAssignedDoctors() public view returns (address[90] memory) {\n    return assignedDoctors;\n    }\n\n\n}\n\n",
  "sourcePath": "/home/drodriguez/blockchain-developer-bootcamp-final-project/contracts/HealthRecord.sol",
  "compiler": {
    "name": "solc",
    "version": "0.8.11+commit.d7f03943.Emscripten.clang"
  },
  "schemaVersion": "3.4.3",
  "updatedAt": "2022-01-13T09:48:54.660Z",
  "networkType": "ethereum",
  "devdoc": {
    "kind": "dev",
    "methods": {},
    "version": 1
  },
  "userdoc": {
    "kind": "user",
    "methods": {},
    "version": 1
  }
}